:020000040002F8
:10700000D8550020C1730200C9730200CB7302007F
:10701000CD730200CF730200D173020000000000A4
:10702000000000000000000000000000D373020018
:10703000D573020000000000D7730200D97302006C
:107040001D760200DB730200AD780200DB730200E4
:10705000DB730200DB73020079750200DB73020050
:10706000DB730200DB730200DB730200DB730200E0
:10707000DB730200DB730200DB730200DB730200D0
:10708000DB73020075760200DB730200DB73020023
:10709000DB730200DB73020085760200DB73020003
:1070A000DB730200DB730200DB7302005D78020019
:1070B000DB730200DB730200000000000000000030
:1070C000DB730200DB730200DB730200DB73020080
:1070D000DB730200DB730200DB730200DB73020070
:1070E000DB730200DB730200DB73020000000000B0
:1070F00000000000DB73020000000000DB730200F0
:10710000000000000000000000000000000000007F
:10711000000000000000000000000000000000006F
:10712000000000000000000000000000000000005F
:10713000000000000000000000000000000000004F
:10714000000000000000000000000000000000003F
:10715000000000000000000000000000000000002F
:10716000000000000000000000000000000000001F
:10717000000000000000000000000000000000000F
:1071800000000000000000000000000000000000FF
:1071900000000000000000000000000000000000EF
:1071A00000000000000000000000000000000000DF
:1071B00000000000000000000000000000000000CF
:1071C00000000000000000000000000000000000BF
:1071D00000000000000000000000000000000000AF
:1071E000000000000000000000000000000000009F
:1071F000000000000000000000000000000000008F
:10720000DFF80CD000F07AF90048004761B30200C3
:10721000D855002030B450E8012F93B2C4892344DC
:107220008489A34228BF1B1B0489A34202BFBFF36A
:107230002F8F002007E0C3EA020340E80134002C4E
:10724000E9D14FF001000A6030BC704750E8012FCF
:10725000C2EA024240E801210029F7D1704730B468
:1072600050E8022F1FFAA2F3C488A34202BFBFF363
:107270002F8F00200DE0C48923448489A34228BFB6
:107280001B1BC2EA034340E80234002CE8D14FF054
:1072900001000A6030BC704750E8022FC2EA224267
:1072A00040E802210029F7D17047034653E8022F36
:1072B000D988B2EB324F4FF0000017BF92B241EACB
:1072C000014142EA014104E05A68B2EB324F08BF83
:1072D000012043E80212002AE8D1704730B4044686
:1072E00054E8000F0D4644E80053002BF8D1156018
:1072F00030BC704730B4044654E8000F40EA010542
:1073000044E80053002BF7D1156030BC704730B40F
:10731000044654E8000F00EA010544E80053002B3E
:10732000F7D1156030BC704730B4044654E8000F04
:1073300080EA010544E80053002BF7D1156030BC0A
:10734000704730B4044654E8000F00EB010544E8F0
:107350000053002BF7D1156030BC704730B40446A1
:1073600054E8000FA0EB010544E80053002BF7D1CF
:10737000156030BC704770B404464FF0000054E80C
:10738000006F0D68AE4207BF44E80023012044E8C7
:1073900000630E60002B1CBF0020F0E770BC70473C
:1073A00030B4044654E8000F88422CBF451A054605
:1073B00044E80053002BF5D1156030BC7047000045
:1073C0000648804706480047FEE7FEE7FEE7FEE77F
:1073D000FEE7FEE7FEE7FEE7FEE7FEE7897602004E
:1073E000017202002DE9F05F0546002092469B469F
:1073F00088460646814640241BE0284641464746CB
:10740000224600F06BF853465A46C01A914110D3F9
:1074100011461846224600F016F82D1A67EB0108AF
:107420004F4622460120002100F00DF817EB00091D
:107430004E41201EA4F10104DFDC484631462A46B5
:107440004346BDE8F09F202A04DB203A00FA02F10F
:10745000002070479140C2F1200320FA03F3194342
:1074600090407047004870476017030040EA0103EE
:107470009B0703D009E008C9121F08C0042AFAD2EA
:1074800003E011F8013B00F8013B521EF9D27047AE
:10749000D2B201E000F8012B491EFBD27047002256
:1074A000F6E710B513460A4604461946FFF7F0FF03
:1074B000204610BD421C10F8011B0029FBD1801A88
:1074C000704730B504460020034600E05B1C934241
:1074D00003D2E05CCD5C401BF8D030BD202A04DB39
:1074E000203A21FA02F00021704721FA02F3D0403D
:1074F000C2F120029140084319467047064C074DDF
:1075000006E0E06840F0010394E807009847103473
:10751000AC42F6D3FFF778FE042A0300242A0300C6
:1075200070B58C1810F8015B15F0070301D110F845
:10753000013B2A1106D110F8012B03E010F8016B72
:1075400001F8016B5B1EF9D12B0705D40023521EF5
:107550000DD401F8013BFAE710F8013BCB1A921C5D
:1075600003E013F8015B01F8015B521EF9D5A1425B
:10757000D8D3002070BD00002DE9FC410025DFF8C4
:10758000948000954FF4807601242F460195304673
:1075900005F0BEF838B1D8F80403204203D03046D5
:1075A00005F0ACF82543361D64007F1CB6B2082FE9
:1075B000EDD34FF4BE74204605F0AAF848B120463A
:1075C00005F09CF845F000456A460221002004F0D1
:1075D000DBFF15F0FF0F16D0012600242E420ED03F
:1075E00008EB8401D1F81005D1F81015C0F305207F
:1075F000094AC1F3014152F8242002B190477600B4
:10760000641C082CEAD3002D02DA684607F0F4FC6B
:10761000BDE8FC8100600040F42C002070B54FF400
:107620008076304604F02AFB114CB50560B1304637
:1076300004F02BFB0120C5F80803607920B9012074
:1076400060712168002088474FF48276304604F04C
:1076500015FB00280AD0304604F017FB0220C5F8BD
:1076600008032168BDE870400120084770BD000094
:107670000C23002002490248091F096800680847D6
:107680006023002005F0C4BD70B54FF08052012486
:10769000D2E94C100023082906D1CD06C5F80C31DB
:1076A000C5F810315E4D2B60082955D15D4D2D6810
:1076B0005D4E35605B4D2D1D2D68361D3560594D75
:1076C00008352D68361D3560564D0C352D68361D34
:1076D0003560544D10352D68361D3560514D1435CB
:1076E0002D68361D35604F4D18352D684E4E2036AD
:1076F00035604C4D1C352D68361D3560494D2035A3
:107700002D68361D3560474D24352D68361D356092
:10771000444D28352D68361D3560424D2C352D6879
:10772000361D35603F4D30352D683F4E4036356053
:107730003C4D34352D68361D35603A4D38352D6851
:10774000361D3560374D3C352D68361D3560354D5D
:1077500040352D68361D3560082904D1050002D159
:10776000334E324D3560082904D1050002D1314E27
:10777000FB253560082908D1050006D192F858622A
:107780002D4A156866F303051560082904D1020027
:1077900002D12A4D8A012A60082906D128480168A9
:1077A000C90702D06FF0010101602648016841F469
:1077B00070010160BFF34F8FBFF36F8F4FF0102147
:1077C000D1F80002002803DBD1F80402002822DAF5
:1077D0001D4A14601D480468002CFCD01224C1F816
:1077E00000420568002DFCD0C1F804420168002960
:1077F000FCD0136001680029FCD0BFF34F8F114803
:107800007C380168124A01F4E06111430160BFF362
:107810004F8F00BFFDE710490E48086070BD0000A3
:10782000380500400404001020C5004048810300D2
:107830008C56004018F50040E40E0040409602408F
:107840000004004088ED00E004E5014000E4014050
:107850000400FA050090D003202400202DE9F04711
:10786000104E062700244FF4A0784FF4803900BF53
:1078700008EB840509FA04F0715961B1D6F80413D4
:10788000014208D02946304605F07EFD0648D0E981
:10789000002128469047641CE4B2BC42E8D3BDE80E
:1078A000F087000000B00140B02D002001480068C2
:1078B000004700001423002002E008C8121F08C17E
:1078C000002AFAD170477047002001E001C1121F61
:1078D000002AFBD1704700000121202803DA8140F3
:1078E0000548014003E0402802DA2038814009B110
:1078F0000120704700207047FC06FFBD10B560B145
:1079000059B102780B785208B2EB530F05D1062219
:10791000401C491CFFF7D5FD08B1002010BD012017
:1079200010BD800701D00020704701207047C36858
:107930008B4206D811440069491E814201D80120BA
:1079400070470020704790F82400012801D01F20C4
:107950007047EE20704710B501220221002001F08F
:1079600007FA08B1072810D107220221012001F0EF
:10797000FFF908B1072808D100210A22084601F0C2
:10798000F7F908B1072800D1002010BD10B560B18B
:107990000B480C49401AC008032101EB00400AA122
:1079A00005F0B8F807F0B8FA03E003210A4800F040
:1079B00078FC002803D0BDE8104000F0D5B810BD19
:1079C000E42A0300342A0300457261736520626F64
:1079D0006E647321000000007824002070B58CB024
:1079E00015460E4600236C46C3F10F01415CE1547D
:1079F0005B1C102BF8D30D2104F11000FFF74FFD95
:107A00000020C0F10F02315C2244401C1174032895
:107A1000F7D3684646DF0020C0F10F01214491F8FA
:107A200020102954401C0328F6D30CB070BD02204E
:107A300001F0A0B80149C97800F0F6BDD8220020B5
:107A400070B50024064D06E06868012110F8340086
:107A500005F00AFD641C28788442F5D3002070BD2F
:107A600020230020F8B516460C4605460A2A01D206
:107A70000720F8BD05F0F0FD18B905F0B1FD0028AC
:107A8000F7D1134F202113487D603C70BE60FFF793
:107A900006FD0020C7E904000F4E0DE005EBC40011
:107AA0003168009181788DF8011000780B4A6946A1
:107AB00005F026FD0028DCD1641EE4B2EED2BDE85C
:107AC000F84005480021064A001D00F05FB800009C
:107AD00020230020E02D00209C130300E1A60200DB
:107AE0005D96020072B605F0B5F800BF04F0F6FE30
:107AF0000028FBD111481249401AC408012000EBAC
:107B0000044010A105F006F811480068C00700D035
:107B100000BE022000EB04400EA104F0FBFFBFF307
:107B20004F8F0B48E43801680E4A01F4E0611143BD
:107B30000160BFF34F8F00BFFDE70000E42A0300A0
:107B4000342A0300466174616C206572726F7200A2
:107B5000F0ED00E053797374656D207265736574A0
:107B6000000000000400FA050EB500210091CDE9E7
:107B700001106A4644F20100FFF7B4FF0EBD000099
:107B8000014801F0FABD0000402300203AB100682E
:107B90000129426100D000210161002070470720C7
:107BA0007047000038B511480823582241680091F9
:107BB0000F49006803F00DFE002815D10D4A6946F3
:107BC0000D4801F0DFFD04000ED101210A4801F04B
:107BD00054FE0123094A1946074801F0A6FD06494B
:107BE000012008390870204638BD0000A4130300A6
:107BF000102E002051F6020040230020FFFF7F00DE
:107C000070B50446007F0D4608B1002070BDA2612A
:107C100002F04CFD401941F10001C4E90201206964
:107C200000B125612146BDE87040002008F032BD5A
:107C3000014600200877012008F02CBD30B5EFF395
:107C4000108172B60D4A9468012324B10370002993
:107C500000D162B630BD93604FF0E023D3F880517D
:107C6000074C25401560C3F88041D3F88441546027
:107C70005A17C3F8842100220270E8E7682E00201A
:107C8000FC06FFBD0B498A68002A11D000280FD1DD
:107C9000EFF3108072B60B684FF0E022C2F80031AB
:107CA0004B68C2F8043100228A60002800D162B615
:107CB00070470000682E002070B5054608680C4625
:107CC000411C04D004F0F3FC206804F031FC60682F
:107CD000411C02D0002104F00DFC2968A069C1F804
:107CE0002405607D227D29681043C1F86C05D4E924
:107CF00000122868C0F81425C0F80C15207D012852
:107D000014D1A068411C02D0002104F0F3FBE0680C
:107D1000411C04D004F0CBFCE06804F009FCD4E979
:107D200002122868C0F80825C0F8101570BD70B59B
:107D3000054608680C46411C04D004F0C2FC2068CB
:107D400004F000FC6068411C02D0002104F0DBFB61
:107D50002968A069C1F82405607D217D2A6808434F
:107D6000C2F86C05D4E900122868C0F80C15C0F8F8
:107D70001425207D012814D1A068411C02D00021C7
:107D800004F0C1FBE068411C04D004F09AFCE068F8
:107D900004F0D8FBD4E902122868C0F80825C0F81E
:107DA000101570BD03F0A8B92DE9F047814605888C
:107DB0004A484FF000088AB001784246284600F051
:107DC0004BFC99F80500400701D4002176E005F549
:107DD0008077B8B205AB0122072106F081FA0400D2
:107DE0003F48404A4FF00101A0EB02004FEAD000AB
:107DF00001EB00460AD0204605F0BCFA02463046A8
:107E00002B46394904F091FE214629E0284602F02C
:107E100007FF4FF6FF71044688422BD18A46069829
:107E200002F068FE0446504510D00146284602F094
:107E3000D7FE2846FFF7FEFDE0B9284607F0BEFE54
:107E40002846FFF7F7FD0028BFD013E006F01EFC20
:107E50000446504508D1304624A104F05BFE0421BD
:107E6000284607F0D9FEB0E70146284602F0B8FEE2
:107E70004FF00108B8B22246072106F0A9FA070020
:107E80001BD0862F1ED005F075FA024630462B46D1
:107E90002349009404F051FE3946284607F0BCFE01
:107EA0000021484606F014F9B8F1000F02D0204630
:107EB00002F0A0FE0AB0BDE8F0870121484606F0B6
:107EC00007F9F7E7142217496846FFF7CFFAADF82C
:107ED0000250684601F0F2FEEFE70000D8220020D1
:107EE000742A0300342A03001C1F0300436F756CBF
:107EF00064206E6F7420616C6C6F63617465206EBA
:107F0000657720706565725F696420666F722069AD
:107F10006E636F6D696E6720626F6E642E00000085
:107F200038200300381303002DE9FC47002517888B
:107F30000646158090F82D001446894630B13A4621
:107F40002146484600F0AEFB051E09D1B0784FF03F
:107F50000C0A18B32088C846001DB84202D9504602
:107F6000BDE8FC87684679DF0028F9D12088032125
:107F700008F8001020881921401C80B2208008F8E1
:107F800000102088401C80B2208000EB0801BDF862
:107F9000000008F04EFD218808442080F07802227D
:107FA000C8B1218896F9033001F1030C4846BC455D
:107FB000D5D8425421884FF0010C491C89B2218048
:107FC00000F801C02188491C89B2218009F80130DC
:107FD0002088401C20807068B8B1218890F900305A
:107FE00001F1030C4846BC45B9D8425421880A2205
:107FF000491C89B2218042542188491C89B22180C0
:1080000009F801302088401C2080308950B1CDE92A
:1080100000474B460622022106F1080008F0F8FD51
:10802000051E9DD1308A50B1CDE900474B4607224D
:10803000032106F1100008F0EBFD051E90D1308BF6
:1080400050B1CDE900474B461522142106F1180026
:1080500008F0DEFD051E83D1306A30B13B46224672
:10806000494601F046F9051EDBD1706A30B13B4646
:108070002246494603F088FA051ED2D196F82C0014
:1080800038B13B4622464946304607F001FF051EFF
:10809000C7D1307838B13B4622464946304603F0D6
:1080A00001FB051EBDD128465AE718B5044600203D
:1080B000ADF8000013466A46204600F006F8002896
:1080C00002D0BDF80000204418BD70B5E0B1DAB1AF
:1080D000002402E0045D2C44A4B2651C8D4206D24B
:1080E0001688A642F6D8061976789E42F2D18C42BE
:1080F0000AD2A31C005D9BB200B1401E0004000C1C
:1081000002D01C188C4201D9002070BD138070BDB4
:1081100080F8301070472DE9F0410D00044606D07C
:108120002CB195F87A000026012803D006E00E2035
:10813000BDE8F08195F89800012821D04FF00108A2
:10814000A6702C2205F17801201DFFF78FF984F825
:108150003060D5F8A4006063D5F8A800A0634FF69E
:10816000FF70A4F8240404F58260C4F82004C4F865
:108170002664A4F82A6484F82C64207810B104E002
:108180000720D5E7FF2084F8540004F15507204666
:10819000C4F81074FFF7D7FBA4F8140404F21442D7
:1081A00039462846FFF7C0FE0028C1D104F231202D
:1081B000C4F818042046FFF7C6FBA4F81C0404F218
:1081C0001C4205F13C00D4F81814FFF7ADFE00285E
:1081D000AED184F85180208BA4F8480084F83C800C
:1081E000266484F85060606900216064454604F1AB
:1081F0003C02781E72DF00289AD1257098E710B5EE
:108200000288102A1BD0112A20D0262A1DD1007ADC
:108210000C46012801D0022817D1A0780521401C66
:10822000B0FBF1F201FB1201204600F03AF8002801
:108230000BD0A16B002908D0BDE810400847C27BD5
:10824000012A02D18088A1F8240410BD0C46002127
:1082500084F82E148088B4F824148842F5D120794B
:108260000028F2D10121DFE710B5044690F8540050
:1082700074DF012084F82E04002084F8300484F890
:1082800050000621204601F002FF002808D1A17805
:10829000204600F006F810B1A16B01B1884700201C
:1082A00010BD2DE9F05F044600780F4698B1A77025
:1082B0000025C4F82654A4F82A5484F82C54A07934
:1082C000012608B1012F09D0E07980B1012F05D036
:1082D000022F03D00BE00820BDE8F09F616B21B1B5
:1082E00084F82D640820884701E084F82D5404F2B6
:1082F000274100200A5C0AB1304603E0401C0628F2
:10830000F8D300204FF002084FF0030B012F06D0E6
:10831000022F0CD0032F0FD0042F15D110E0A1791C
:1083200029B194F8241011B908B130460DE0E17973
:1083300011B108B1404608E0207A08B1584604E07F
:10834000607A08B1042000E02846A070616B41B15A
:10835000032801D0042804D1607910B194F82E04C8
:1083600098B184F82F5404F13C0018210746FFF718
:1083700096F884F83C6004F12C0006F0B9FA58B184
:1083800094F82C0084F8510008E084F8305484F804
:108390002F6407208847E6E784F8516094F82400AA
:1083A00058B104F1280006F0A3FA20B194F828008F
:1083B00084F8520001E084F8526084F85050A278AA
:1083C00004F2264104F582694FF0060A052A64D2B8
:1083D000DFE802F07C030F22420084F83160C4F829
:1083E0002054C4E9101584F83C808020A4F848008B
:1083F00055E084F8318094F82420384612B10722E1
:10840000027001E080F800B0228A8281C4F8205412
:108410004160E168B96042E06069B860208BB88172
:1084200094F824003D460028204602D084F83CA061
:1084300001E084F83C6008F0B7FB50B185F8148087
:108440000421204601F023FE38BB052184F83110B9
:1084500021E084F831B01EE0E069B860208CB8817A
:1084600094F824003D460028204602D084F83CA021
:1084700001E084F83C6008F097FB48B185F814806F
:108480000421204601F003FE38B984F831A002E04F
:10849000042084F83100C4F82094A07878B13A46DA
:1084A00004F15400D4F8201472DF00287FF414AFD4
:1084B00094F8301094F8540073DF0028F6D1616B03
:1084C00011B194F831008847002005E784F8315055
:1084D000F5E7000070B5040012D001461C221448D4
:1084E000FEF7C4FF1248134D0560206850B17ADFD3
:1084F000002806D12068016829604068686005E0AE
:108500000E2070BD0B487BDF0028FAD108484FF6DB
:10851000FF711438084A20F8041B054934390160FA
:108520000021FFF733FB0028EBD0032070BD0000D3
:108530006429002090220020410B030010B504465E
:1085400000F0A6F8002805D02146BDE810400248FA
:1085500003F0BEB910BD00009029002070B515468B
:108560000E46044608F02CFB002809D0054800EB15
:108570008400C0692A463146BDE8704001F0B4BDB0
:1085800070BD00008029002010B5044600F080F87E
:10859000002805D02146BDE81040024803F098B9F4
:1085A00010BD00009829002010B5044600F070F8B6
:1085B000002805D02146BDE81040024803F088B9E4
:1085C00010BD00009429002070B50546002400F07D
:1085D0005FF838B12946044803F07AF908B102245B
:1085E00000E00124204670BD8C29002070B50546AE
:1085F000002400F04DF838B12946044803F068F92A
:1086000008B1022400E00124204670BD8829002022
:1086100010B51821034803F036F9182800D0C0B26D
:1086200010BD00008029002070B505460C460846A4
:1086300008F0C6FA60B1284600F02AF840B10548B3
:10864000294600EB8400BDE870401C3003F040B9BF
:10865000002070BD8029002070B5054616460C46E6
:10866000084608F0ADFA00280ED0284600F010F8B1
:10867000002809D00548324600EB84002946BDE8B1
:1086800070401C3001F0FEBC70BD0000802900204D
:10869000142801D3002070470146014803F018B99F
:1086A000842900207CB5054608880C460930904294
:1086B00001D90C207CBD68466DDF0028FAD12188E5
:1086C0000820685420881B21401C80B22080295437
:1086D0002088401C80B220802844DDF80110016011
:1086E000BDF8051081802088801D80B220809DF813
:1086F0000010490800D0012129542088401C208006
:1087000000207CBD38B501880446212930D012DC18
:108710001E481F4A1029A0EB02004FEAD0004FF07C
:10872000030202EB00400ED011292AD1BDE83840E7
:1087300018A104F0EFB93B2924D0562921D1808813
:10874000132176DF0EE017A104F0E4F9072000F012
:1087500031FB08B1FFF708FA1548A1884180154898
:1087600003F014FA00280CD0BDE83840FFF7FCB93C
:1087700000200090A08869468FDF002801D0FFF715
:10878000F3F938BD8088132176DFEBE7E42A030094
:10879000342A0300446973636F6E6E6563746564A5
:1087A0002E000000436F6E6E65637465642E0000DA
:1087B000702200206C24002010B51A4C01886068DB
:1087C00010290ED011292BD1401E606028D1FFF74F
:1087D000C2F8002824D02168002921D0BDE810402B
:1087E0000847D0B900210122084600F0C1FA08B1BB
:1087F00007280FD107220221012000F0B9FA08B1A1
:10880000072807D104220221002000F0B1FA20B18C
:10881000072802D0216801B188476068401C606069
:1088200010BD0000882200202DE9F04701883B4E52
:1088300040F2F3194FF6FF7510291BD011293ED0D5
:10884000122954D0502946D1C188F289841D914201
:1088500041D1618902293ED18688304602F08EFAE4
:10886000050038D004F10C0000F03CF9A8B329460B
:1088700030464EE0C17B8788044601292BD1A846AB
:10888000284602F07BFA050017D02F8000202872BE
:10889000234843464A460168C5F80A104068C5F8AF
:1088A0000E0004F1100105F10A0002F02BFB6872C2
:1088B000F08900280FD129462AE0042013E080889F
:1088C00002F05CFA040006D06068FFF7B1F908B165
:1088D00007F086F92580BDE8F087FFE76868FFF7B5
:1088E000A7F90028F7D0BDE8F04707F079B98788E5
:1088F0000646384602F042FA0400ECD02B464A46BF
:1089000006F1080104F10A0002F0FCFA6072214647
:108910003846BDE8F04700F033BD00006429002070
:10892000902200202DE9F04F0446868801884248B5
:1089300097B0834610290CD0112950D01030192936
:108940006AD01A2974D1217A0C09042C4DD3012242
:108950004CE0394D083DA868C0430B9069680BA8EE
:1089600002F0DAFF0B990CA800F0A4FC2C220CA951
:108970006846FEF77BFD0027E946A84610E000BFE9
:1089800009EB47005FF00005B0F804A008EB850094
:108990005146001D02F05CFF6D1C1E2DF6D37F1C9E
:1089A0000098B842ECD8142E05D317B00420BDE8C7
:1089B000F04FFFF7D9B83146584602F094FF3146E0
:1089C00008F1040002F08FFFE07B022830D117B0DD
:1089D0003146BDE8F04F1848001D02F084BF17B0C3
:1089E0003146BDE8F04F02F033BF0022314601F0BE
:1089F00049FB032C01D3012200E000220E4831463E
:108A00000C3001F03FFB022C01D3012200E00022D8
:108A100009483146083006E0217A002908D1617AF8
:108A2000C1F3C002314617B0BDE8F04F01F02ABBD8
:108A300017B0BDE8F08F00008829002010B504466B
:108A40000748007800280AD0204601F0C5FF2046DC
:108A500007F076FA2046BDE8104001F063BC10BD77
:108A6000C822002070B50C46054601881148124AFC
:108A7000801AC008032202EB0040102905D01129FA
:108A800007D050290CD00DA106E0A98821800FA1A4
:108A900002E0A98821800FA1BDE8704004F03AB837
:108AA0000EA104F037F829462046BDE8704000F0DA
:108AB000C7BC0000E42A0300342A030056616F207B
:108AC000736B2064656661756C74000056616C6937
:108AD00064000000556E56616C6964004461204773
:108AE00068690000007800F0010070470149085CE7
:108AF00070470000E4110300084908B5085C0090C5
:108B0000684603F071FDD0F810050099C84010F0D8
:108B1000010000D0012080F0010008BDE411030035
:108B20002DE9FC410646C0074FF000050ED0104F5E
:108B300000240122385D009500231146019503F0C1
:108B400063FC641C042CF4D300F04EF8B0070DD580
:108B5000074E0024361D0022305D03230095114688
:108B6000019503F051FC641C042CF4D3BDE8FC8196
:108B7000E0110300094908B5085C0090684603F05D
:108B800033FDD0F80425009B0121994021EA02031E
:108B9000C0F808351140C0F80C1508BDE0110300FD
:108BA0000249085C012103F096BD0000E0110300BA
:108BB0000249085C002103F08EBD0000E0110300B3
:108BC000084908B5085C0090684603F00DFDD0F830
:108BD00004050099C84010F0010000D0012080F089
:108BE000010008BDE011030010B500242046FFF786
:108BF000D7FF641C042CF9D310BD10B50024204607
:108C0000FFF7D6FF641C042CF9D310BD10B5024643
:108C1000064B4FF0FF3000215C5C944201D10846C6
:108C200010BD491C0429F7D310BD0000E411030056
:108C300070B50C4E0C004FF0000530600BD00120D9
:108C400000F06AF808B1022004E0002000F064F8A7
:108C500000B10B202070706810B9FEF77CFE05464D
:108C6000284670BD8822002010B5002000F0DCF9F5
:108C700008B1062806D1012000F0D6F908B106286F
:108C800000D1002010BD00002DE9F0470D468146BF
:108C9000FFF7BCFF0446042836D2DFF874801B4877
:108CA0001C4EA8F10C0725B3012D0ED0022D2BD19F
:108CB00004EB440030444578002D25D0B9680029E4
:108CC00022D02846BDE8F047084704EB4401755C14
:108CD0000E44717849B10E4A4FF40041093A806858
:108CE000FEF78EFF08B987F80390B17808F80410F2
:108CF000E2E78068FEF79CFF04EB4401314418F87A
:108D000004008D78A842D7D0BDE8F087E8110300B1
:108D10008422002000290020042801D2FFF7ECBEA5
:108D20000020704710B5104A042807D007280FD03C
:108D30000A2817D1BDE8104007F0EEB8132150887B
:108D400076DF0DE000280DD0BDE81040FEF70CBF27
:108D50005088A0F57F41FF3904D10448FFF784FA19
:108D60000828EFD110BD00007022002078240020D8
:108D700070B50023042810D20D4D00EB4004012AE9
:108D800002D101290CD00022094E00EB40003044F2
:108D900061B1012906D0022906D00723184670BD0B
:108DA0000E30C2B22A55F9E74270F7E78270F5E754
:108DB00000290020044A014600201279D20702D07F
:108DC000084600F04DB870477822002070B506467E
:108DD0001E480024C0E90161B00720D5002501220A
:108DE00011462846FFF7C4FF6D1C0446042D02D22D
:108DF000002CF4D013E094B940F2666204211448C8
:108E0000FEF730FE04000AD1FEF71AFE040006D178
:108E10000F48104A0021001FFEF7B8FE0446F00775
:108E200012D00120FFF77CFE74B909480A4A0021DC
:108E30000C38FEF7ABFE040006D10548074A0121B5
:108E40000838FEF7A3FE0446204670BD78220020B5
:108E5000F41103003591020099AF02002F7A02004D
:108E60002DE9F05F6E4C054600266078B34618B1D8
:108E700084F801B002F078F86A4F4FF47A694FF441
:108E8000C87A4FF00108182D69D2DFE805F00C13FD
:108E900013384754696E727B727BC58484848484E2
:108EA000B3B6B9BCC5C502F05FF83868FEF7C0FEBE
:108EB00006465CE00020FFF783FE00284FF000002C
:108EC00008D0FFF76DFE022D02D14FF4E16008E0FB
:108ED000484606E0FFF76CFE022D01D1C82000E0F5
:108EE0005046410CC0034FF4FA72801841F1000162
:108EF000257052000023FEF775FA01462AE0002093
:108F0000FFF75EFE00284FF0000004D0FFF748FE98
:108F10004FF44870E5E7FFF74BFEDFE70020FFF76F
:108F20004FFE00284FF0000002D0FFF739FECFE7D8
:108F3000FFF73EFED4E70020FFF742FE00284FF087
:108F4000000002D0FFF72CFE01E0FFF731FE257094
:108F500041F69A1100223868FEF752FE064646E0B6
:108F60000020FFF707FE257008E0002051E0257083
:108F70003DE084F801800120FFF7FCFD002240F66F
:108F8000CD41E8E784F801800120FFF7F3FD0022DE
:108F90004FF48041DFE77868FEF74AFE0646D5F1D8
:108FA000110000D02EB10220FFF7FAFD84F802B0C4
:108FB0001DE0012816D980B2C8214843C117C90352
:108FC00041EA5041C0034FF4FA72801841F10001A8
:108FD00052000023FEF706FA014600227868FEF7E9
:108FE0000FFE06460220FFF7E3FD84F802803046BC
:108FF000BDE8F09F01F0B8FFB9E701F0B5FFB4E7B5
:1090000001F0B2FF04E001F0AFFF0020FFF7D0FD58
:109010000120FFF7CDFDAAE7FFF7EFFDA7E700006E
:1090200078220020E8110300012107F059BE00005A
:109030002DE9F84F0546861C00208DF8000091466A
:109040000F464FF0010A6846FEF7F8FD1B4C04F28C
:109050001C4860683860D4E90101194F401A39682A
:10906000081A0EE00121404602F050FC02F026F9F9
:109070000146404602F04AFCD4E90101401A396831
:10908000081A401C8642EDD8B9F1000F03D0052024
:1090900065F3891002E0062065F39F5061683A6825
:1090A000114004EB8101C8606068304460609DF845
:1090B0000000FEF7E7FD5046BDE8F88FB83100200C
:1090C000C823002070B50D4604460A2902D10D219F
:1090D000FFF7F8FFA0682268411CA1601554D4E98D
:1090E0000101814204D32046BDE8704002F051BE28
:1090F00070BD0000044881684068814201D10120B0
:109100007047002070470000B8310020034630B59A
:10911000074800210478426806E000BF02EBC10066
:1091200005789D4203D0491CA142F7DB002030BDE9
:109130002023002000780221FFF7A6BD1CB50446BD
:1091400001F06EFD00236A46092105F00BFA05289F
:1091500005D10348012241792046FFF77DFA1CBD65
:10916000982200201CB504460020009042F6A6205C
:10917000ADF8000001208DF80200084801AA6946F8
:10918000006801902046A0DF002805D10448012294
:1091900081792046FFF760FA1CBD0000141203001D
:1091A0009822002005494FF0FF32082841F820207E
:1091B00002D3084480F8582070470000F42C0020A7
:1091C000F0B54FF0FF3512B10023082601E0082367
:1091D0000C260C4C05E000BF54F823707F1C04D013
:1091E0005B1CB342F8D32846F0BD26185DB286F862
:1091F000305044F82310002AF5D1E11881F85800C6
:10920000F1E70000F42C00200249084490F93000F6
:1092100070470000F42C002070B504464FF6FF752F
:109220000A462846AC4209D14FF4807421461046C4
:1092300002F029FB80B2A0420BD070BDFF2CFCD8FD
:109240002146104602F00FFB90F0010F01D020469E
:1092500070BD284670BD000070B5084C050009D0EF
:1092600010342168002907D0086820604968284622
:109270008847F6E70834F4E770BD0000E02C0020D2
:10928000054A012120B1012805D19170FFF7E4BF03
:1092900051700020FAE77047E02C002010B5D0E9AB
:1092A0000234D1E90220D11AA04101D3012010BD1E
:1092B000002010BD73B58CB00646002000900D98BC
:1092C00080B100246D4621460DA802F001FB30B1AB
:1092D000009805EB400084800098401C0090641CBE
:1092E000142CF0D32C2269463046FEF7BFF80EB09E
:1092F00070BD2DE9F04117880646B81D14460D468D
:10930000984202D90C20BDE8F08131880722062955
:109310000AD34FF4486C4FF6FF73614501D9994267
:1093200002D17088062801D21046ECE7604501D9C9
:109330009842F9D1994203D0984201D08142F3D8A2
:109340000520E85520881221401C80B22080295435
:109350002088401C80B220804119308807F069FBCA
:109360002188084480B220804119708807F061FB91
:109370002188084420800020C5E7FEF7F5BB0000E7
:1093800038B54A7A0F4B62B100220A725969002936
:1093900006D001228DF80020ADF80200684688470B
:1093A00038BD0A7A62B19B684C680246194620466D
:1093B000FEF726FC0028F3D0BDE8384006F010BCCC
:1093C0005B68F1E764290020F0B585B016460F46CA
:1093D00004461D4614220B496846FEF747F80A4822
:1093E0008DF80870ADF80240ADF80A608DF80C50A9
:1093F000017800222046FFF72FF9684600F05EFC56
:1094000005B0F0BD4C130300D82200202DE9F04137
:10941000094D0A4E14004FF4803701D00F2000E0B0
:10942000102003F03AF92C7039463068BDE8F0415D
:109430000022FEF7E5BB000070220020DC110300D3
:109440002DE9F0410E4607468D1D11481149401A7D
:10945000C108032000EB014004460FA103F05AFBB2
:109460002888B98888420DD1688901280AD1F8680E
:1094700040B120460DA103F04DFBFB682A7BB0886C
:10948000394698472046BDE8F0410FA103F042BBA2
:10949000E42A0300342A030044612076616F2068C7
:1094A000616D206461206768690000004461207676
:1094B000616F2074726F6E6720636175206C656EDA
:1094C00068206966000000004461207261206B68BA
:1094D0006F692068616D2064612067686900000021
:1094E00070B588B00646002005900690ADF81410BF
:1094F000ADF816100190029001AA05A9304690DF40
:10950000050021D003F036FF0346114811493246C9
:10951000401AC108012000EB014004460E4903F047
:1095200004FBBDF8042012B9BDF8060028B1BDF84F
:109530000630204609A103F0F8FABDF808201AB158
:109540002046164903F0EAFA08B0284670BD00002C
:109550004C2A0300342A0300A41A0300546865202F
:109560007265717565737465642054582F52582064
:109570007061636B6574206C656E677468206973D5
:1095800020746F6F206C6F6E672062792025752FB5
:109590002575206F63746574732E0000F01A030044
:1095A00070B504460948012102F0CBF9BFF35F8F83
:1095B0000025002808D1204601F0FAFD002803D13B
:1095C000BFF35F8F0148056070BD0000A42200203A
:1095D0002DE9FF410C4620B14FF4064004B0BDE830
:1095E000F0812079002748F2096538B141F61D560F
:1095F00001281BD0022826D0681DEFE70220207129
:1096000002970397E0680190694601A805F07AFF88
:1096100050B102988188E18000882081BDF8001057
:10962000029805F0EDFFD9E72846D7E70A4B6A46CE
:109630000021A01D05F01EFF38B1074918398F61C0
:10964000CF61A842CAD13046C8E703488188019853
:1096500005F0D6FFF5E700008023002070B5002458
:109660000F4D10E0686800EBC406307803F0B0FFDF
:109670007178012901D0012100E0002141403078BA
:1096800000F070FA641C28788442EBDBD5E9040111
:10969000084303D0BDE8704007F018B870BD000063
:1096A0002023002010B50F2002F036FF102002F01A
:1096B00033FF0F2002F080FF102002F07DFF0648EC
:1096C0000649BDE81040401AC008032101EB0040E4
:1096D00003A103F01FBA0000E42A0300342A0300A8
:1096E0004461206B686F692074616F20646F6E67DE
:1096F00020636F0010B50021024802F022F980F3C8
:10970000100010BDD43500204FF480328A4001682B
:10971000C1F848230068C0F8082370474FF4A072CE
:1097200002EB810189B200F08DBA2DE9F0410546C6
:109730000E464FF4A07000EB860081B228684FF40B
:109740008034B440984622F07F47C0F80843286828
:10975000C0F84843286803F0A1FB286800EB8600A6
:10976000C0F840752868C0F84443B8F1000F02D033
:109770002868C0F80443BDE8F0810068D0F804050B
:109780007047000070B54379234C44F82320427998
:10979000231D03EBC202224C1579204A121BD40868
:1097A0002DB10825022000EB04401EA130E0056821
:1097B0000A88C5F8082590F904208978002A4FEA1C
:1097C000411104DB02F1E02282F8001405E002F00E
:1097D0000F0202F1E02282F8141D90F90410012218
:1097E000002909DB01F01F0502FA05F54909890086
:1097F00001F1E021C1F800514179002503EBC101DD
:109800000A71417943F83100032000EB04400EA1B6
:1098100003F080F9284670BD5C230020C42A0300B1
:10982000342A030052544320696E7374616E636579
:1098300020616C726561647920696E697469616C1C
:10984000697A65642E0000005254433A20696E69BB
:109850007469616C697A65642E00000090F90400F7
:10986000002809DB00F01F0201219140400980001F
:1098700000F1E020C0F8001270470A46022100F013
:1098800067B94FF4827100F0DDB900680121016011
:10989000704700680121416070472DE9F05F07467D
:1098A0000C464FF4A07000EB84001FFA80FA386871
:1098B0004FF48036A6409B4622F07F45C0F84863AF
:1098C0003868C0F808633868D0F8048500EB840273
:1098D000D2F84095C2F840855146386803F0DEFA68
:1098E000A9EB080020F07F40012806D1102003F0EA
:1098F000B3FD5146386803F0D1FA3868D0F80485D2
:10990000C0F84463A5EB080121F07F4138680129C4
:1099100000EB840010D0C0F840553868D0F804152A
:109920006FF07F4C6A1A521E22F07F42ACEB0B03A1
:10993000934217D362B118E06D1CC0F84055102057
:1099400003F08AFD3868D0F8040540450AD10CE0E0
:1099500000EB84006D1CC0F840553868D0F8040551
:10996000884202D00D20BDE8F09F012231463846E2
:1099700000F0EEF80020F6E713460A460021FFF754
:1099800023BD00002DE9F843104D0F4680461E46CA
:1099900091466946286801F02FFF040014D01C216D
:1099A000FDF77DFD01202071C4F81490380BC4F838
:1099B0000080C4E902606946286801F03EFF05F0B6
:1099C000D1FC0020BDE8F8830420FBE7501403001D
:1099D00010B503780022072B06D2DFE803F0050458
:1099E0000610202930000A7010BD01230B70038976
:1099F0008B818388CB81C06888600A7410BD022285
:109A00000A7002898A818288CA81C2688A60807DE0
:109A1000062802D00020087410BD0120FBE70322B5
:109A20000A70C2888A810289CA81C068886010BDB4
:109A300004230B70C0888881CA818A6010BD05200C
:109A4000087010BD70B5064D0646002455F8241068
:109A500009B130468847641C042CF7D370BD000060
:109A6000902E002030B50446006887B00D4680680F
:109A700000281FD018216846FDF711FD0195A06848
:109A80000590207910B1012810D107E001208DF850
:109A9000000020690290E068039005E002208DF844
:109AA0000000E0680003029060690490206881680B
:109AB0006846884707B030BDF0B585B017460C0042
:109AC00005463AD0112C38D0082C36D01C481D49F8
:109AD000401AC6080D2C11D0204603F04BFC02465C
:109AE000012000EB06402B46174903F01EF82A46DA
:109AF0000721684601F034FE02941BE0022000EBCF
:109B000006402A46114903F009F82A46032168460F
:109B100001F026FE27B13878C00701D0012000E00F
:109B200002208DF8080000208DF80C0041F2011091
:109B3000ADF80A00684600F0CFF805B0F0BD0000AF
:109B40007C2A0300342A030004220300F4200300CB
:109B50000368C3F84413002A02D00068C0F8041355
:109B6000704700002DE9F84F0E463449804601EB5E
:109B70005001C007097801D00F0901E001F00F077B
:109B80004FF00009424601204946FDF75CFCDFF832
:109B9000B0A004460D46052F4ED2DFE807F00316AD
:109BA0001B282C00002E47D00121404606F062FC05
:109BB0008DF800906846FEF741F85046D0E904124F
:109BC0000C431543CAE9044532E00EB1022114E00A
:109BD000002112E04EB10321404606F04BFC404606
:109BE000BDE8F84F012107F003B8012105E0002E80
:109BF00022D1042101E02EB103214046BDE8F84FF7
:109C000006F038BC0021404606F034FC00214046F6
:109C100006F0EEFF8DF800906846FEF70FF850460C
:109C2000E243D0E904341A4024EA0501CAE90421D8
:109C30009DF80000FEF726F8BDE8F88FE02D002023
:109C40002023002010B5006842581AB103F026F90D
:109C5000012010BD002010BD10B50446408800F062
:109C6000DFFFA080024801682046BDE81040084799
:109C7000A022002010B50446808800F01BFF608001
:109C8000024801682046BDE810400847B022002085
:109C90002DE9F04107460024064E074D05E000BFC0
:109CA00056F8241038468847641CE8788442F7DB6D
:109CB000BDE8F081942C0020C822002010B5044695
:109CC000408800F0ADFFA080024801682046BDE852
:109CD000104008470C1303000149096808470000B9
:109CE0008813030070B586B0044614216846FDF75A
:109CF000D6FBA0890125A0F54040ADF804002078EE
:109D00002F4E062833D2DFE800F0320303032C4A3B
:109D1000A08900F09BF930B9E08943F6FE71A0F507
:109D20004040884223D8A07B8DF808002078032883
:109D30000FD000208DF80900A0680390606850B132
:109D400009208DF8000060680490684604F05CFB10
:109D50000DE00120EEE708208DF800008DF810508E
:109D6000F3E7A08900F072F908B1E08930B17078AA
:109D7000002801D004F09CFC06B070BD606830B1D2
:109D80000B208DF80000606802907570DDE70A20F6
:109D90008DF80000BDF8040004F02EFDF5E76068C2
:109DA00048B114208DF80000606802904FF6FF70F3
:109DB000ADF80400C9E713208DF80000F6E70000B5
:109DC000B422002038B504460F480078B0B1A4F59D
:109DD0007F40FF380FD0684605F0F4F988B10521BF
:109DE000017001210171C480684605F0F9F905F0A0
:109DF000ABFA002038BD48F2036038BD48F201607C
:109E000038BD48F2076038BD882300200D4808B5EA
:109E1000007888B1684605F0D5F980B10621017057
:109E2000684605F0DDF90848017809B101210173A0
:109E300005F08AFA002008BD48F2016008BD48F22A
:109E4000076008BD88230020542F0020F0B587B09C
:109E500014216846FDF723FB304C207818B1684682
:109E6000FFF7F0FD57E0201D01F04DFD98BB40F6D7
:109E7000F8700168481C02D14FF0102041694FF082
:109E80008050026940694B1C01D100FB02F124485B
:109E900000220161A1F54051C160224902F00EF992
:109EA000002823D121481C238C221F49006801F07F
:109EB00090FC04F035F8050016D0022D14D00027D0
:109EC0000126062D14D005A805F07CF998B106707E
:109ED0000C2D1BD200E01EE0DFE805F01810181072
:109EE000181718171812141248F20A6007B0F0BDBC
:109EF00026706760B3E748F20760F7E7077105E08F
:109F0000032100E00221017100E0067105A805F0BF
:109F100067F905F019FA0020E8E70000882300201F
:109F20002424002060140300A02E0020C813030086
:109F300038B5040014D0694605F0E4FAB0B1BDF8B4
:109F4000000000EB80010B4800EB8100C16851B1BB
:109F5000A17A41B1C168491EC1600020A07238BD1C
:109F600048F2046038BD48F2056038BD48F2096027
:109F700038BD00002C2F00201FB501A9684605F050
:109F800079FA04B010BD07B513460A4669460020A9
:109F900005F070FA0EBD07B513460A460021684663
:109FA00005F068FA0EBD20B119B100680860002004
:109FB000704748F204607047F8B50D46040018D0A9
:109FC000BDB1694605F09EFAB0B1BDF800000C497C
:109FD00000EB800001EB800001210C30666801F08D
:109FE00095FC2E6060680C3068600120A072002033
:109FF000F8BD48F20460F8BD48F20960F8BD000001
:10A000002C2F002018B10323002206F0B5BF48F220
:10A01000046070470223002206F0AEBF094910B564
:10A020000A69042A0AD0084A096942F82100054849
:10A030000121103001F06AFC002010BD48F20B60D5
:10A0400010BD000068230020902E002043F6FE7112
:10A05000A0F54040884201D8012070470020704799
:10A0600010B504460078182802D1FEF7D1FA207006
:10A0700010BD10B504460078182802D1FEF7C8FAC2
:10A08000207010BD0AB101F02EBC01F0E1BB70B52B
:10A090000D460446B0F81414D0F810040122FEF75F
:10A0A00004F800B1057004F13C0204F5826104F18A
:10A0B000540072DF70BD000070B5134600220546E3
:10A0C000112900D10122074C33B12179FEF7C4FADE
:10A0D00000226178284600E06178BDE87040FEF714
:10A0E000BBBA0000E0220020F7B517460E0011D0E1
:10A0F0000098002560B100242146684601F0E8FB85
:10A1000018B1A0B23946B0476D1C641C142CF3D3AF
:10A110002846FEBD0020FEBD406805F073B8000073
:10A1200070B510B14FF4064070BD1C4C0025207B6B
:10A1300008B1257301E000F0A5F8207808282AD29C
:10A14000DFE800F02904080C10291422BDE8704053
:10A1500000F026B8BDE8704000F082B8BDE870405D
:10A1600000F064B8BDE8704000F040B806202070F0
:10A1700060880A4900EB8000283901EB80004068C4
:10A18000BDE8704003F0ACBE072020706560BDE8FC
:10A19000704003F0B3BE48F20E6070BD542F002033
:10A1A0001149F0B48A1C00200346A1F128050C18BF
:10A1B000A67A4EB1A37200EB800405EB8404E66836
:10A1C00016B9247C012C0AD0401C80B20228EED3A0
:10A1D0000B704B804B60F0BC41F61D5070471080F7
:10A1E000F0BC00F03DB80000542F00200C4841881E
:10A1F00001EB8102A0F1280101EB8201CA6852B192
:10A200000521017007480221818001680023012295
:10A21000054801F0B7BE042202704968F6E7000065
:10A22000542F0020902300202424002038B50A4910
:10A23000084803240B684268898803EB810153882E
:10A240000470DB1C00201B0400909B0B034801F0F2
:10A25000EDFF38BD542F002090230020242400203F
:10A26000074910B54888091D05F09CF918B1BDE8EB
:10A270001040FFF7DBBFBDE81040FFF7B7BF00009D
:10A28000542F002070B5194C0121207808281AD2CB
:10A29000DFE800F00419191C252929182089134A20
:10A2A000401C2081002060802073283A00EB80034E
:10A2B00012F8233043B100232518401C80B2AB7242
:10A2C0000228F3D3217070BD0123F5E760680849C7
:10A2D00040888A88C01C10448880022004E000F076
:10A2E00009F8062000E00720207070BD542F0020E0
:10A2F000902300200A4909484988026801EB81033C
:10A300000749283901EB83014B6803604A60828862
:10A310000A81022282800020087470479023002066
:10A32000542F00202DE9F043064680883288DFF85C
:10A330005C8185B00746502A37D010DC5449554B14
:10A3400006F10A05A1EB03014FEAD1014FF0020328
:10A3500003EB0144352A3AD0362A07D168E0522A65
:10A3600002D0542AF9D102E000F0C6FE82E01422A5
:10A3700049496846FDF77AF8ADF80270384600F0B2
:10A380004FFCADF8040000F0C9F90022444698F8EB
:10A3900004103846FEF760F90022E1783846FEF7EF
:10A3A0005BF96846FFF758FC64E0307B012861D117
:10A3B000B07A01285ED13089A0F52451023959D1F3
:10A3C0000121384600F0ECFE06F0A2FB52E098F8BE
:10A3D0000610FEF729F900284CD0002298F8061044
:10A3E0003846FEF739F9F288B2F5857F17D012B1F9
:10A3F00020462AA10BE02A88012A03D0204636A154
:10A4000002F08CFB6A88012A04D0204641A102F0A8
:10A4100085FB04E0A98800223846A1DF08B10021AD
:10A4200025E0012298F807103846FEF715F921E0DB
:10A430004FF0000998F80710FEF7F6F8D0B10022A7
:10A4400098F807103846FEF707F9F28812B120464F
:10A4500012A104E0AA88012A04D020462DA102F00E
:10A460005DFB03E0A87900B10120814649463846EA
:10A4700006F062F80022364998F80200FEF76EF8FE
:10A4800005B0BDE8F04305F0FBBB000098220020BA
:10A49000342A0300342A03006C120300556E6578D9
:10A4A000706563746564204741545420737461740B
:10A4B0007573207768696C652067657474696E6769
:10A4C0002043415220636861722076616C75653A61
:10A4D00020307825780000004D756C7469706C65CB
:10A4E00020282564292043415220636861726163FA
:10A4F00074657269737469637320666F756E642C1A
:10A50000207573696E67207468652066697273745C
:10A510002E000000556E6578706563746564204395
:10A520004152206368617261637465726973746912
:10A53000632076616C7565206C656E677468202891
:10A540002564292C2073746F726520302E00000062
:10A55000A57D020070B504460078002814D16088FB
:10A5600000F0CAFD6588284600F09AF928B107482E
:10A570000122C1782846FEF76FF86088FEF7DEFDFD
:10A58000BDE8704006F0C4BA70BD000098220020FB
:10A5900070B5204C00252570FEF73AF86070FEF784
:10A5A00037F8A070FEF734F8E070FEF731F820714C
:10A5B000FEF72EF86071FEF72BF8A071FEF728F871
:10A5C000E07162780121182A18D0A278182A15D0D3
:10A5D000E278182A12D02279182A0FD06279182A24
:10A5E0000CD0A279182A09D0182807D004F10C0041
:10A5F0000560BFF35F8F2170002070BD0648074AD9
:10A60000801AC00801EB0040054902F083FA0320DC
:10A6100070BD000098220020342A0300342A030071
:10A62000641703007CB504460078082837D1607AA7
:10A6300058BB207A1C4E4FF6FF75012811D0072811
:10A6400002D008282BD121E0A08800F033FA04467C
:10A65000A84224D0012100F0A3FD2046FEF76EFDA4
:10A660001DE0A0886A46012103F0F0FD68B9019859
:10A67000007850B1A08800F01DFAA8420FD0012246
:10A68000F178FDF7E9FF05F0FBFA08E0F068012832
:10A6900005D1BFF35F8F044900200C310860BDE88D
:10A6A0007C4006F035BA00009822002010B50B4817
:10A6B000FFF763F8094A083AD2E90434C018D2E92E
:10A6C000063244F10001C31A71EB020204D24FF0CA
:10A6D0008072801841F1000110BD0000402300206D
:10A6E00010B5C0B2FEF712FD0446007802F070FF0C
:10A6F00001466078012801D0012000E0002090EAA6
:10A70000010F08D00449D1E90401084303D1BDE891
:10A71000104005F0DBBF10BD202300201CB5054A0A
:10A72000D2E90212CDE900120022694603F054FF7B
:10A730001CBD00008412030003484FF6FF718180A6
:10A740000121017000207047A82200202DE9FC4162
:10A75000804600F065FA002403250127A0F57F411B
:10A760002646FF3908D06A46082103F06FFD18B964
:10A770000198841D8688056832462B46214640464E
:10A78000B1DF042804D0082804D00B2808D002E048
:10A79000112000E00020002F00D10B20BDE8FC813B
:10A7A0000027A80701D50125E6E7344303D000249C
:10A7B00026460325E0E7064806494246401AC008F7
:10A7C000012101EB0040044902F0A8F9E5E700008F
:10A7D0003C2A0300342A03002C1A03002DE9FC4113
:10A7E000804600F01DFAA0F57F410646FF390ED0E5
:10A7F00001252A466D1C0027ADB26B460821304664
:10A8000003F06EFD040006D0072C33D033E043F292
:10A810000200BDE8FC81019903230A1D0B6040463C
:10A82000891DB2DF040004D00C2C09D0052C09D0FE
:10A8300009E032460821104603F0CAFD04461AE03A
:10A84000012700E000240821304603F0B7FD70B175
:10A8500002F090FD0346094809493246401AC008F3
:10A86000012101EB0040074902F05FF90324002FAA
:10A87000BFD100E00C242046CBE700003C2A0300B7
:10A88000342A0300AC19030004488088A0F57F41F6
:10A89000FF3901D005F0FEB970470000A822002062
:10A8A0000EB502A9019100F0BBF96A46012103F03F
:10A8B000CDFC08B100200EBD019800780EBD00004F
:10A8C0002DE9F04107464FF6FF761048B3DF78B127
:10A8D00002F050FD02460E480E49401AC008012100
:10A8E00001EB00400C4902F019F90320BDE8F081AA
:10A8F000064C43F20305A41E324661883846AFDF9A
:10A90000A842F3D16088401C6080F5E7AA220020AD
:10A910003C2A0300342A030060190300428800EB3C
:10A9200082020C328A4201D9022070478188A1F547
:10A930007F42FF3A06D0018821B18068401C01D0D7
:10A940000020704701207047884204D20068401CF4
:10A9500001D001207047002070473EB502780223E5
:10A960000C46B3EB520F17D1B0F80110ADF8001040
:10A97000C1788DF802108188ADF8041080798DF8C7
:10A98000060002AA01A92046FDF728F8032202A921
:10A990006846FCF796FD08B100203EBD01203EBD93
:10A9A00070B50D460446142810D2FDF771FE68B14B
:10A9B000084904EB840001EB4000D0F80210296044
:10A9C000C188A980007AA871002070BD43F20200FE
:10A9D00070BD0000FC29002070B5018890B01029DE
:10A9E00061D1011D2C226846FCF740FD9DF8040052
:10A9F0004FF6FF7603213446B1EB500F2BD003F016
:10AA0000A9FD9DF804006D4640080ED001280CD029
:10AA1000022820D118E00D99281D1131FCF76EFF96
:10AA200018B100BFBDF82C4015E00CAA0BA90720F7
:10AA300003F064FD0028EED10DE00D99281D491C9E
:10AA4000FFF78BFF0028EDD10CAA0BA9072003F01C
:10AA500055FD0028F1D1BDF80000B44200EB8001A3
:10AA6000124820F8114000EB41000199C0F8021093
:10AA7000BDF80810C1809DF80A10017213D0BDF80E
:10AA80000000ADF82E000020ADF83040084E8DF8E3
:10AA90002C000BAD044600BF56F82410284688470A
:10AAA000641C022CF8D310B070BD0000FC290020FB
:10AAB000981203002DE9F0414FF6FF760546B042AB
:10AAC00013D00B4F002400BF04EB840037F81000B4
:10AAD000A84206D12046FDF7DBFD10B12046BDE8B7
:10AAE000F081641CA4B2142CEED33046F7E70000CA
:10AAF000FC2900203EB50C46054603F02BFD0BE07B
:10AB0000BDF80000A04207D02846029900F00EF8D8
:10AB100010B1BDF800003EBD01AA6946072003F050
:10AB2000EDFC0028ECD14FF6FF703EBD2DE9F04161
:10AB30000C46054600F1110701F111061022491CCF
:10AB4000401CFCF7BEFC48B9681C00F0FDF928B1B8
:10AB5000601C00F0F9F908B1012400E0002431463E
:10AB60003846FCF7CBFE3B780222B2EB530F0CD0F9
:10AB70000321B1EB530F08D03378B2EB530F04D05D
:10AB8000B1EB530F01D0012100E00021084201D1B7
:10AB90008C4302D00120BDE8F0810020FBE7018852
:10ABA00011B9421892780AB101207047491C08294E
:10ABB000F7D30020704710B50C460346FFF7EFFFB0
:10ABC00000280AD018882188884205D10822A11CB3
:10ABD000981CFCF776FC08B1002010BD012010BDC8
:10ABE000142804D2024A00EB800022F810107047AB
:10ABF000FC29002070B50546FFF75CFF0446284697
:10AC000003F028FB002808D1142C06D2034B04EBD8
:10AC100084024FF6FF7123F8121070BDFC2900204A
:10AC200010B50446142808D2FDF732FD28B10449B6
:10AC300004EB840031F8100010BD4FF6FF7010BD1A
:10AC4000FC2900203EB5044603F084FC0EE0019987
:10AC500020464631FFF7AFFF28B9019920462A3137
:10AC6000FFF7A9FF10B1BDF808003EBD6A4602A972
:10AC7000072003F043FC0028E9D14FF6FF703EBDEA
:10AC800010B50A4941600A4800F03DFE58B902F08B
:10AC9000D1FA07491C238C22087404488C39001F00
:10ACA000006800F096FD002010BD00005414030061
:10ACB000003000202DE9F0412D4F002520B17D60AE
:10ACC0004FF40640BDE8F0810879012258B1294EC1
:10ACD00001280CD0264C4FF002080834022820D05E
:10ACE000032841D127E00A7103F008F93AE0002077
:10ACF00000EB800116F82110022908D0401C80B218
:10AD00000228F5D33A707D6041F61D50DAE700EB7A
:10AD1000800006F8205006EB8000406803F0E0F861
:10AD200020E00D71A4F8048000230122124821685C
:10AD300001F028F916E00D71206803F0D1F80D49F3
:10AD400023682831498801EB810206EB8201D1F8A2
:10AD500004C0C4F800C04B60A3880B81A4F8048031
:10AD600006F822500028ADD07D6048F20D60A9E7BA
:10AD7000882300202C2F0020242400200146034893
:10AD800002888A4200D0002070470000502900202D
:10AD90002DE9FC5F0E008346DDE90C47C6F100009B
:10ADA00098469246814600D40846012503E000BF3C
:10ADB00090FBFAF06D1C5045FADAA84500D94546DB
:10ADC00024B1002E01DB780700D5641EB80702D538
:10ADD000B8F1000F0AD0F80708D13CB1A54205D25E
:10ADE00020215846641EFEF76DF9F6E7002E02DAC0
:10ADF0004E462D2102E0780703D52B215846FEF759
:10AE000061F907F0030002280BD1B8F1000F08D157
:10AE10003CB1A54205D230215846641EFEF752F9D6
:10AE2000F6E7CDE90047434652463146584605F01D
:10AE300015FEBDE8FC9F000070B50D460446006895
:10AE40004FF4887102F0BCFA4FF49071206802F060
:10AE5000B7FA4FF49271206802F0B2FA4FF4A2717F
:10AE6000206802F0ADFA4FF4AC71206802F0A8FA45
:10AE700020681249C0F804132068690740F30730BE
:10AE8000090E002804DB00F1E02080F8001405E042
:10AE900000F00F0000F1E02080F8141D206840F35E
:10AEA0000730002809DB00F01F0201219140400912
:10AEB000800000F1E020C0F8001170BD10034200D6
:10AEC000024600201268530713D502F00300012840
:10AED00002D002280CD105E0C2F383100B68801C5D
:10AEE000184404E00223086803EB925210440860FF
:10AEF000012070470248007A002800D001207047E6
:10AF000000300020F0B58488A518944200D822466D
:10AF1000A41AC288D6189A4200D81346D21A4B886F
:10AF20000788BB420CD34088834209D88888A04256
:10AF300006D3A84204D8C888904201D3B04201D9B0
:10AF40000020F0BD0120F0BD0021425C0AB10120CB
:10AF50007047491C1029F8D300207047800701D0A2
:10AF600000207047012070470A4810B5807860B112
:10AF7000002401E0022C06D02046FDF711FE641CDF
:10AF8000042CF7D310BD0324F6E7BDE81040FDF70D
:10AF90002BBE00007822002003480179C90702D0A7
:10AFA0000078FDF75DBF70477822002017210180EF
:10AFB00041800021017141711B218171C171704774
:10AFC0002DE9FE4F2E4F984692460D00814601D046
:10AFD00000260DE0684600F0B9FB6A4600214846AD
:10AFE00003F090F83878009E10B99DF8090098B1E8
:10AFF00052463146484605F055F9044601460022BE
:10B000004846FFF759F80D2C37D008DCA4B3082CBC
:10B0100033D00B2C09D130E00520BDE8FE8F112C78
:10B020001ED0A4F54050023827D0204602F0A2F9E5
:10B030000246144814494B46401AC008012101EB4E
:10B040000040124901F071FD5FF00305B8F1000FF7
:10B0500004D0324621464846FEF72EFD2846DCE75E
:10B060002A46F9784846FDF7F7FA5246B978484635
:10B07000FDF7F2FA0025E9E7FFE72546E6E70000DD
:10B08000E02200207C2A0300342A0300AC210300C4
:10B0900070B50E460C49154604460978FDF7C4FA0A
:10B0A00000280FD0204602F0D3FF00282A46314660
:10B0B000204603D0BDE8704002F0D0BFBDE870402C
:10B0C000FEF75ABC70BD0000D822002070B5094DB3
:10B0D0000646A978FDF7A8FA0446E9783046FDF758
:10B0E000A3FA014622463046BDE870400123FFF72F
:10B0F00067BF0000E0220020F0B585B005460027BC
:10B1000014216846FCF7CBF9A5F57F40ADF8025055
:10B11000FF3825D02846FFF719FB040022D01B4832
:10B120001B49401AC6080B2C22D0112C1ED0A4F5A6
:10B13000405002380ED0204602F01CF90246012091
:10B1400000EB06402B46134901F0EFFC2146284650
:10B1500004F04EFD10483A4681782846FDF77CFA07
:10B1600005B0F0BD0E208DF800000BE00127F1E7DF
:10B170000F208DF80000022000EB06402A46074908
:10B1800001F0CCFC6846FEF767FDE3E7342A0300D4
:10B19000342A030034180300982200208818030082
:10B1A0000A4602494978FDF757BA00009822002064
:10B1B0002DE9F041002786B080463E46FFF70EFBA2
:10B1C000040022D0112C22D01B481C49401AC5086B
:10B1D000862C1ED0A4F5405002380ED0204602F036
:10B1E000C9F80246012000EB0540434614A101F0D6
:10B1F0009CFC2146404604F0FBFC39464046FFF7E4
:10B20000CFFF06B03046BDE8F0810126F5E7012703
:10B21000F3E714221A496846FCF728F90220ADF832
:10B22000028000EB0540424616A101F077FC68461B
:10B23000FEF712FDE1E70000342A0300342A030080
:10B240006773636D5F6C6F63616C5F64625F6361A2
:10B250006368655F75706461746528292072657420
:10B2600075726E656420257320666F7220636F6E41
:10B270006E5F68616E646C653A20256400000000B2
:10B2800044120300466C6173682066756C6C2E2056
:10B29000436F756C64206E6F742073746F726520D9
:10B2A0006461746120666F7220636F6E6E5F6861A7
:10B2B0006E646C653A202564000000002DE9FF41B2
:10B2C0000026244800F01CFB2248001F074600F01F
:10B2D00017FB214C2149A06800900D6800E0009800
:10B2E0006946284004EB80000C30FFF7E9FD002898
:10B2F000F5D101AA009901EA050304EB8303491C77
:10B30000DB6842F82030401C00910228F2D30198FB
:10B3100000F0030001280BD0022810D1019803216E
:10B3200001EB90500099BDF80A6001EB900005E038
:10B330000198BDF80A60C0F38310084400903846B5
:10B3400000F0DBFA08B10098A06004B03046BDE818
:10B35000F0810000D0350020B8310020C823002043
:10B36000ACB04FF40041002001F048FC08B1FCF7FC
:10B37000FBFB01F0A5FAFCF715FC08B1FCF7F4FBA8
:10B38000654A00216548FCF701FC65490320FDF78B
:10B390001DFD08B1FCF7E8FB69460020FDF748FCFD
:10B3A00008B1FCF7E1FB9DF8000002287DD00025E4
:10B3B00001F02EFD08B1FCF7D7FB01F0EFFE08B15C
:10B3C000FCF7D2FB002469460120009401F076FDD1
:10B3D00008B1FCF7C9FB684601F0F0FD08B1FCF7C5
:10B3E000C3FB51494F48C8609DF808004FA120F0A9
:10B3F0000F00401C20F0F00010308DF808001122E2
:10B4000002A87CDF08B1FCF7AFFB00945020ADF838
:10B410000000A0200194ADF80200ADF804404FF404
:10B42000C870ADF8060068467ADF08B1FCF79CFBEF
:10B430000021434800F0F0FA08B1FCF795FBFEF755
:10B4400031F9404800903E486946143000F0A9FBAD
:10B4500008B1FCF789FB344802F0C8FCAC2168460F
:10B46000FCF71DF802208DF8000001208DF8020085
:10B470000621ADF84C008DF87C008DF803104FF4D8
:10B48000967031492290149144F2506023902F48D5
:10B4900029902B4869462030FCF73DFE08B1FCF7A7
:10B4A00063FB27480121203000E032E0FCF730FE4A
:10B4B0001C216846FBF7F3FF4FF42030CDE9004034
:10B4C0004FF47020029022480590032621488DF801
:10B4D0000C600690ADF80E408DF810406846FCF701
:10B4E000F9FF08B1FCF740FB03F0CCF91A481B49FF
:10B4F000401AC00806EB004019A101F00BFB2846DA
:10B50000FCF744FA01F0EAF90028FBD101F094FCC1
:10B51000F8E701254CE70000A5050300DC11030056
:10B52000258D02000D940200AC2800204F75724357
:10B5300068617261637465726973746963000000A5
:10B54000582400207DCE02007422002081DB0200FE
:10B55000D5DB02007B930200E42A0300342A0300B7
:10B560004F7572436861726163746572697374695F
:10B570006373207475746F7269616C207374617287
:10B580007465642E0000000070B5144682880E4673
:10B5900005462088111D0144921C994201D8FE2ABB
:10B5A00001D90C2070BD521C32542088FF21401C50
:10B5B00080B2208031542088401C80B220808119C4
:10B5C000288805F036FA2188084480B22080AA88AD
:10B5D00042B1A96841B13044FBF748FF2088A988EF
:10B5E00008442080002070BD072070BD2DE9F04781
:10B5F000C5881E1DB6FBF5F78946B6FBF5F1044676
:10B6000005FB176C407916686843DDF820A0F71831
:10B61000001F874200D9C61A166001E02468491E3F
:10B620000029FBD1A5EB0C078846B74216D818E0D5
:10B6300004EB0C00001D09EB0803BAF1000F3A46B9
:10B6400002D00146184600E01946FBF70FFF2468B8
:10B65000F61B4FF0000CB844B54201D9374600E064
:10B660002F46002EE4D1BDE8F087000030B5024639
:10B6700051B101F0D7FA0021074C08E034F821302D
:10B680001568AB4202D11160002030BD491C8142D7
:10B69000F4D3052030BD000000000000BFF35F8F31
:10B6A00000F016B9F8B50F46017814460546012991
:10B6B00001D1687830B12088821C9A4232D80129A1
:10B6C00002D006E00720F8BD69780144891C994240
:10B6D00028D8181A801E86B2ADF800602188B81CE0
:10B6E000084469467DDF0028EDD12978022904D07D
:10B6F0006878BDF80020904205D3BDF80000B04244
:10B7000001D809200AE00820012905D16978B14251
:10B7100002D8ADF8001001E0ADF80060BDF80010EF
:10B72000FE2901D90C20F8BD2288491CB954218872
:10B73000491C89B2218078542088401C2080BDF8A3
:10B740000010084420800020F8BD0000034A0021BA
:10B750009268C0E90021816070470000E02200206B
:10B7600070B586B00D460646144614216846FBF7B0
:10B7700096FE8DF80050ADF802402046FFF750FAD3
:10B78000ADF80400142269463046FBF76FFE06B0A0
:10B7900070BD70B54FF6FF750E46A84201D100206E
:10B7A00000E0401C84B208E02146304600F090F8EA
:10B7B00008B1204670BD641CA4B2FF2CF4D9284601
:10B7C00070BD10B5FBF771FD08B1002010BD112050
:10B7D00010BD10B531B1B2FBF3F403FB14241CB15E
:10B7E000092010BD0E2010BD016000214160816064
:10B7F0008281C381084610BD70B50C460546FBF733
:10B8000009FD002802D021882868084470BD10B5C1
:10B810000A8849888A4203D1FBF73EFD012010BD0A
:10B82000002010BD70B50C460546FBF718FD00283A
:10B8300002D061882868084470BD10B50A8849881C
:10B840008A4203D1FBF702FD012010BD002010BD8C
:10B8500001F01F0301229A40D243490900EB810005
:10B86000114600F059B80A4601F01F030121994022
:10B8700010B552090C4600EB820000F05DF8204044
:10B8800000D0012010BD2DE9F04180460D46002476
:10B89000481E012101EB501716E058F82400C04360
:10B8A00090FAA0F0B0FA80F020280CD200EB4416F9
:10B8B000AE4208D231464046FFF7D5FF0028ECD112
:10B8C0003046BDE8F081641CA742E6D82846F8E778
:10B8D0004A0950F8220001F01F020121914008405E
:10B8E00000D00120704701F01F0301229A4049094E
:10B8F00000EB8100114600F029B8002100F017B8D4
:10B90000012100F023B8012100F016B808B56A46FD
:10B91000FBF717FD009808BD08B56A46FBF7F7FC72
:10B92000009808BD08B56A46FBF70BFD08BD08B5D1
:10B930006A46FBF7ECFC08BD08B56A46FBF7DAFC83
:10B9400008BD08B56A46FBF7C9FC08BD08B56A46DC
:10B95000FBF7D0FC009808BD08B56A46FBF7FEFC73
:10B96000009808BD38B5044600258DF8005068469B
:10B97000FCF764F921686268086890420ED9401E9D
:10B9800008600178238AE26801FB0325227A216896
:10B99000101AC0B20A79824200D208719DF80000E4
:10B9A000FCF770F9284638BD38B5054600208DF8FB
:10B9B00000000C466846FCF741F9E868298A201A1D
:10B9C000B0FBF1F12A681068431C136001709DF808
:10B9D0000000FCF757F938BD10B530B1017A426864
:10B9E0000368891AC9B21A6006E00E2010BD036808
:10B9F0001A68541C1C601170491EC9B2F7D2006845
:10BA000000210171084610BDC20800F007030120A3
:10BA1000895C98400840704710B560B101611721FA
:10BA200020F8021B20F8021B1B2100F8021BFFF765
:10BA3000BDFA002010BD0E2010BD0000F0B58588B5
:10BA400093B00C46002D39D1018800263F4F2429A0
:10BA50003BD006DC102909D011290CD0232958D15C
:10BA60004FE03A290BD0552953D129E00146204611
:10BA700002F0BEF84DE0A01DFFF798FA49E022461B
:10BA8000408934F8061F814200D808466080172894
:10BA900000D217206080106970B1607960B1D7E979
:10BAA0000001CDE90301ADF80E506088ADF810003B
:10BAB000136903A9104698476671267113B0F0BD4B
:10BAC0000146204602F0E8F823E0011D2C2206A8DA
:10BAD000FBF7CCFCBDF81800BDF81C2004EBC0013E
:10BAE0004A732269AAB1D7E90423CDE90423ADF84A
:10BAF0001200487B8DF814002269204604A9904763
:10BB000007E0017A207B884200D201462846FDF7F3
:10BB1000E7FCA07A0028D1D0E1882846A5DF0125DE
:10BB200080B11128CAD001F025FC02460848094915
:10BB300013B0401AC00805EB0040BDE8F04006A174
:10BB400000F0ECBFA672E572B8E70000A012030097
:10BB50004C2A0300342A030073645F626C655F67DC
:10BB6000617474635F65786368616E67655F6D7447
:10BB7000755F7265717565737428292072657475B7
:10BB8000726E65642025732E0000000020B10278DB
:10BB9000DE2A03D0082070470E2070474180002025
:10BBA000704760B159B10278DE2A0AD00968416055
:10BBB000DE2101704FF6FF714180002070470E209A
:10BBC0007047082070477FB5054600294DD0002DED
:10BBD0004BD008780C46DE2847D1A8886188884277
:10BBE00002D1204604F0F2FF2888012825D002283F
:10BBF0003BD011283AD0512837D135F8040F61884D
:10BC0000884232D1A978A81C02292ED1017A0429B0
:10BC100003D0062901D0052927D100210091022255
:10BC20008DF8002001914FF4C07202910391ADF89C
:10BC30000420007A05280FD010E0297A2046012937
:10BC400013D1A988428891420FD10121017204B019
:10BC5000BDE8704004F0BABFADF80410288869460A
:10BC6000B0DF002801D0616888477FBDA88861885F
:10BC70008842FAD14FF6FF7060807FBD00F18040AE
:10BC80000068002800D00120704708B500F180400E
:10BC9000002101600068009008BD000070B50D4CE7
:10BCA0000125207808B185260EE00020A0606060A4
:10BCB0002061E060084801F0A7FB064601F0BAFAEF
:10BCC00008B901F08BFB257001F080FB00B1A57075
:10BCD000304670BDE02C00208192020038B500256E
:10BCE0008DF800506846FBF7A9FF084CE068401E3D
:10BCF000E060E06828B901F069FB10B901F094FB3D
:10BD0000A5709DF80000FBF7BDFF38BDE02C0020BA
:10BD1000F0B505460478154889B0164640F8242049
:10BD2000124A08690832A2F10C0742F82400487F41
:10BD3000385520226846FBF799FB04942878385C34
:10BD400048B10EB10A4A00E000226946281D01F000
:10BD5000F9FD09B0F0BD0EB1064A00E000226946C7
:10BD600005F10C0001F0B8FCF3E70000FC22002014
:10BD7000F1080300390703000FB408B5039900293F
:10BD800004D004AA00926A4600F00FF801B05DF8F2
:10BD900014FB10B582680446002A05D0D4E90403D8
:10BDA000216898470020A06010BD2DE9FC4791460E
:10BDB0000C00804676D014F8011B39B125290ED02D
:10BDC0004046FDF77FF920780028F4D198F80C0060
:10BDD000002867D04046BDE8FC47FFF7DABF0020E7
:10BDE000012221782B291BD02D2902D0302908D1FE
:10BDF00002E040F0010001E040F00200641C002A73
:10BE0000EFD100252A290ED02178A1F130020A2A8B
:10BE100011D205EB850201EB4205641C303DF1E7D0
:10BE200040F00400EAE7D9F800100B1DC9F8003013
:10BE30000968641C0D44217800232E290BD114F8C5
:10BE4000011FA1F130020A2A05D203EB830201EBA4
:10BE50004203303BF3E76C290DD068290BD06929E8
:10BE600021D00BDC252918D0582931D063290ED0D8
:10BE7000642915D117E014F8011FECE7702969D087
:10BE8000732932D075291BD0782909D120E0D9F83F
:10BE90000000011DC9F8001001784046FDF712F9B5
:10BEA000641C90E76CE0D9F800100A1DC9F8002066
:10BEB0000968CDE900500A224046FEF769FFEFE726
:10BEC000D9F800100A1DC9F8002009680A2206E006
:10BED000D9F800100A1DC9F8002009681022CDE920
:10BEE0000050404604F0BAFDDAE7D9F80010002708
:10BEF0000A1DC9F800200E68C00705D112E04046AF
:10BF0000761C7F1CFDF7DEF831780029F7D104E0BC
:10BF1000202140466D1EFDF7D5F8BD42C0D9002D49
:10BF2000F6D1BDE74EB13046FBF7C4FA074604E050
:10BF3000202140466D1EFDF7C5F8BD4206D9002DF3
:10BF4000F6D103E04046761CFDF7BCF831780029B5
:10BF5000F8D1A5E7D9F80000011DC9F8001005685F
:10BF600030214046FDF7AEF878214046FDF7AAF8AB
:10BF700008200021CDE90001034610222946B0E740
:10BF8000BDE8FC872DE9F843884605002C482D497B
:10BF90009946A0EB01004FEAD0004FF00101164690
:10BFA00001EB004424D0286800282CD0002E34D087
:10BFB000696840464FF010070A68511E11EA080FE1
:10BFC00011D1014672432846FBF7B1FC00282ED060
:10BFD00028684B463246046901B041462846A446CB
:10BFE000BDE8F04360472046174B18A2009722E0B7
:10BFF0000E2000902046144B1EA220A100F09DFDB3
:10C000000E20BDE8F8830820009020460E4B26A2A3
:10C010001AA100F092FD0820F3E7092000902046C5
:10C02000094B24A215A100F088FD0920E9E7064B81
:10C03000214A2046009711A100F07FFD1020E0E783
:10C04000CC2A0300342A03003B14030061646472A9
:10C050005F69735F706167655F616C69676E656476
:10C0600028705F66732C20706167655F616464721D
:10C0700029000000705F66730000000025732063D4
:10C080006865636B206661696C656420696E202554
:10C0900073282920776974682076616C7565203073
:10C0A0007825782E00000000705F66732D3E705F6B
:10C0B000617069006C656E007022030038B5030082
:10C0C0001148124D4FF00E04A0EB05004FEAD000CE
:10C0D0004FF0010505EB004009D061B119600C6813
:10C0E00001B0A446BDE83040114618466047084BF1
:10C0F00008A2009402E0064B08A2009409A100F0F7
:10C100001CFD0E2038BD0000CC2A0300342A030099
:10C11000F0130300705F667300000000705F6170D1
:10C1200069000000257320636865636B20666169A0
:10C130006C656420696E20257328292077697468EE
:10C140002076616C756520307825782E000000001F
:10C15000044801214174007A08B100207047012091
:10C160007047000000300020012801D0032808D1CA
:10C170000449002201284A7400D00020087403F00A
:10C1800093B870470030002070B50246022801D0F5
:10C19000032A45D1234C207A002841D0012833D0EE
:10C1A000022831D120480023022A006802D0032A45
:10C1B0002AD11BE0E360017911B1012924D10DE0FE
:10C1C000D0E90565711B4FF48056B14200D331466A
:10C1D000294481614569A9420ED015E00169491CD5
:10C1E0000161426991420FD1237213E0E168491C59
:10C1F000E160082908D9E3602372022A0AD00D21E0
:10C20000FDF730FC02F0F4FF607C28B1BDE870401F
:10C2100001F016B80021F3E7BDE8704003F044B820
:10C2200070BD000000300020982300202DE9F84F59
:10C2300090468A463A493B4A0500A1EB02014FEA83
:10C24000D1014FF00102DDF828901E464FF00E009C
:10C2500002EB01441AD0B8F1000F1CD02868002866
:10C2600022D00920002E29D069684968B6FBF1F276
:10C2700001FB1261002926D000902B4B20462BA2F7
:10C2800035A100F05AFC0920BDE8F88F0090204647
:10C29000254B3CA203E00090234B20463BA22EA15D
:10C2A00000F04BFC0E20EFE70820009020461E4BCC
:10C2B00038A229A100F041FC0820E5E700902046C3
:10C2C000194B37A2DCE75046FBF72BFB102798B140
:10C2D0004046FBF726FBA0B1324651462846FBF705
:10C2E00026FB98B1CDF80090286833464246C468D2
:10C2F00051462846A047C7E720460B4B29A2009786
:10C3000008E02046084B2DA2009703E0064B20468C
:10C3100033A2009710A100F010FC1020B4E7000039
:10C32000CC2A0300342A03002814030021286C655A
:10C330006E202520705F66732D3E705F666C6173A2
:10C34000685F696E666F2D3E70726F6772616D5FB8
:10C35000756E697429000000257320636865636B3E
:10C36000206661696C656420696E20257328292028
:10C37000776974682076616C756520307825782E31
:10C3800000000000705F667300000000705F737251
:10C3900063000000705F66732D3E705F617069001E
:10C3A0006C656E00616464725F69735F616C69677C
:10C3B0006E65643332286465737429006164647245
:10C3C0005F69735F616C69676E65643332282875D5
:10C3D000696E7433325F7429705F73726329000071
:10C3E000616464725F69735F77697468696E5F62C4
:10C3F0006F756E647328705F66732C206465737448
:10C400002C206C656E2900002DE9FF411C46DDE9FA
:10C410000A7815460E46684600F0E6F846EA4501F9
:10C4200041EA840141EA072242EA0841009A00EB0E
:10C430008200C0F80017BDE8FF812DE9FF411C46CE
:10C44000DDE90A7815460E46684600F0DBF846EA54
:10C45000450141EA840141EA072242EA0841009A83
:10C4600000EB8200C0F80017BDE8FF812DE9FF4115
:10C470001C46DDE90A7815460E46684600F0D0F8FD
:10C4800046EA450141EA840141EA072242EA0841BD
:10C49000009A00EB8200C0F80017BDE8FF812DE98B
:10C4A000FF411C46DDE90A7815460E46684600F055
:10C4B000C5F846EA450141EA840141EA072242EA19
:10C4C0000841009A00EB8200C0F80017BDE8FF8128
:10C4D0001CB5002100910B4601220191FFF7C6FF18
:10C4E0001CBD1CB5002100910B4601220191FFF7F4
:10C4F000D6FF1CBD1CB500220B46009211460192CE
:10C50000FFF7B4FF1CBD1CB500220B46009211467C
:10C510000192FFF7C4FF1CBD08B50090684600F00B
:10C5200055F8009A032100EB8200C0F8001708BDFF
:10C530001CB5002100910B46012201911146FFF725
:10C5400095FF1CBD1CB5002100910B4601220191F5
:10C550001146FFF7A4FF1CBD13B50C46684600F05A
:10C5600051F8009900EB8101D1F8002722F4403204
:10C57000C1F80027009900EB8100D0F8001741EACC
:10C580000441C0F800171CBD3CB50A4CD4E9003486
:10C59000CDE900346B46441808E000BF53F8201082
:10C5A000D1F8205520C2C1F82055401C8442F5D84E
:10C5B0003CBD00008C13030001B5684600F006F88E
:10C5C000009A01219140C0F80C1508BD016820298E
:10C5D00002D24FF0A040704701F01F0101600148F6
:10C5E00070470000000300500168202902D24FF07C
:10C5F000A040704701F01F01016001487047000032
:10C60000000300500168202902D24FF0A04070477B
:10C6100001F01F0101600148704700000003005055
:10C620000168202902D24FF0A040704701F01F019D
:10C630000160014870470000000300500168202994
:10C6400002D24FF0A040704701F01F010160014885
:10C65000704700000003005042094FF0000102D073
:10C66000012A05D102E04FF0FF3101E04FF6FF71E2
:10C6700000F01F00012282400A4201D001207047D1
:10C680000020704701B56846FFF7BCFFD0F81005E1
:10C690000099C84000F0010008BD01B56846FFF7E9
:10C6A00095FF009A01219140C0F8081508BD01B519
:10C6B0006846FFF7B5FF009A01219140C0F80815C0
:10C6C00008BD01B56846FFF7B9FF009A0121914006
:10C6D000C0F8081508BD38B501240090684631B18E
:10C6E000FFF782FF00998C40C0F8084538BDFFF77E
:10C6F0007BFF00998C40C0F80C4538BD034908B554
:10C700000844002101600068009008BD00600040FE
:10C7100002494058012800D00020704700600040C6
:10C7200030B5154A01460020D2F8104423460AE0ED
:10C73000DB681D79854205D1401C0A28F6DB4FF0E5
:10C74000FF3030BD1B68002BF2D1431CF9D0CB6801
:10C750001871D2F8103443B1DB68CC681B682360D1
:10C76000D2F81024D268116030BDC2F81014C96824
:10C7700000220A6030BD0000B8310020F0B595B04D
:10C780001C4615460F4608461A9E00F01BFB182152
:10C7900009A8FAF784FE0E96CDE909540023082271
:10C7A00003A9384600F023FB05980690BDF8100059
:10C7B000ADF81C00BDF81200ADF81E0000208DF889
:10C7C00021000398082600F00300012802D0022867
:10C7D00018D032E003983346850AC0F3C2008DF8C2
:10C7E000200003980FA9C0F38314A200384600F07C
:10C7F000FEFA09A8009006AB22460FA9284600F0D1
:10C800003DFA1AE00398840DC0F3C2008DF82000B1
:10C81000082C01D2254600E0082533462A460FA9F8
:10C82000384600F0E4FA2E44641B09AB06AA2946F8
:10C830000FA800F08BF9002CEAD1384600F0C8FAB6
:10C8400015B0F0BD7047012003F094BF084810B543
:10C850000178084A515C19B1001D01F00DF902E0A0
:10C860000C3001F007F8BDE81040002003F082BF53
:10C87000AC230020F822002008B5034A0092402390
:10C88000024AFFF77BFF08BD41FC02002030002078
:10C890000A4A012902EBC00007D0022907D0032968
:10C8A00007D0042907D000207047022070470420D9
:10C8B000704700797047407970470000342A0300C0
:10C8C00010B5FFF7C0FF04210348FFF729FF024915
:10C8D0000120C968487110BD242A03002DE9F04FDA
:10C8E0008DB0FCF707FC18B100200DB0BDE8F08F4B
:10C8F0007E4C4FF0000BC4F818B4BFF34F8F7C4947
:10C90000A06802900D68D846284004EB80000BE038
:10C91000D4F8180470B961680298814201D8A16006
:10C92000E2E7284004EB80000C3002A9FEF7C8FAC9
:10C930000028EDD1002005AA029901EA050304EBC5
:10C940008303491CDB6842F82030401C0291022816
:10C95000F2D3059800F00300022802D001284DD040
:10C96000AAE005985022810D8946B2EB905F00D86D
:10C9700050210E4666F39F50059008315D4800F047
:10C98000D8F9070078D000F01DFA4346082205A91F
:10C99000384600F034FA029908F1080A2940681A6A
:10C9A0008000001D864222D9504D0C3530B1C2B2F4
:10C9B00004EB8101301A90460C3104E02946F2B2B2
:10C9C000002590462846C6B25346384600F017FA6E
:10C9D0000AEB080325B132462946384600F00FFA23
:10C9E000029909F1030001EB900002903BE004EB97
:10C9F00081015346324638460C31EFE70598C0F3C3
:10CA00008310062800D30620059960F38911C1F32D
:10CA10008310801C05918100364800F08AF90700D8
:10CA20004AD000F0CFF94346082205A9384600F065
:10CA3000E6F908F1080800260FE00298434600EAEC
:10CA40000501401C04EB81010290042238460C31A0
:10CA500000F0D5F908F10408761C0598C0F383109E
:10CA6000B042EAD847B1D4F81054D4F8180478B1D9
:10CA7000384600F0ADF934E01EE0E868407901285E
:10CA800004D12A682846394612689047E868056844
:10CA9000002DF2D1384600F09BF98DF800B06846C1
:10CAA000FBF7CCF8D4F8180408B90298A0609DF8F8
:10CAB0000000FBF7E7F814E0D4F8104405E0216823
:10CAC000204689688847E0680468002CF7D10A4846
:10CAD0000A49401AC008022101EB004008A100F0F9
