:020000040002F8
:107000007867002061740200697402006B740200EA
:107010006D7402006F7402007174020000000000C1
:10702000000000000000000000000000C17302002A
:1070300075740200000000000574020079740200FB
:107040003D7602007B7402009D7A02007B74020090
:107050007B7402007B74020099750200FD760200C9
:107060007B7402007B7402007B7402007B7402005C
:107070007B7402007B7402007B7402007B7402004C
:107080007B740200957602007B7402007B74020020
:107090007B7402007B740200457802007B7402005E
:1070A0007B7402007B7402007B7402004D7A020044
:1070B0007B7402007B7402000000000000000000EE
:1070C0007B7402007B7402007B7402007B740200FC
:1070D0007B7402007B7402007B7402007B740200EC
:1070E0007B7402007B7402007B74020000000000CD
:1070F000000000007B740200000000007B740200AE
:10710000000000000000000000000000000000007F
:10711000000000000000000000000000000000006F
:10712000000000000000000000000000000000005F
:10713000000000000000000000000000000000004F
:10714000000000000000000000000000000000003F
:10715000000000000000000000000000000000002F
:10716000000000000000000000000000000000001F
:10717000000000000000000000000000000000000F
:1071800000000000000000000000000000000000FF
:1071900000000000000000000000000000000000EF
:1071A00000000000000000000000000000000000DF
:1071B00000000000000000000000000000000000CF
:1071C00000000000000000000000000000000000BF
:1071D00000000000000000000000000000000000AF
:1071E000000000000000000000000000000000009F
:1071F000000000000000000000000000000000008F
:10720000DFF80CD000F08AF9004800473DB60200D4
:107210007867002030B450E8012F93B2C48923442A
:107220008489A34228BF1B1B0489A34202BFBFF36A
:107230002F8F002007E0C3EA020340E80134002C4E
:10724000E9D14FF001000A6030BC704750E8012FCF
:10725000C2EA024240E801210029F7D1704730B468
:1072600050E8022F1FFAA2F3C488A34202BFBFF363
:107270002F8F00200DE0C48923448489A34228BFB6
:107280001B1BC2EA034340E80234002CE8D14FF054
:1072900001000A6030BC704750E8022FC2EA224267
:1072A00040E802210029F7D17047034653E8022F36
:1072B000D988B2EB324F4FF0000017BF92B241EACB
:1072C000014142EA014104E05A68B2EB324F08BF83
:1072D000012043E80212002AE8D1704730B4044686
:1072E00054E8000F0D4644E80053002BF8D1156018
:1072F00030BC704730B4044654E8000F40EA010542
:1073000044E80053002BF7D1156030BC704730B40F
:10731000044654E8000F00EA010544E80053002B3E
:10732000F7D1156030BC704730B4044654E8000F04
:1073300080EA010544E80053002BF7D1156030BC0A
:10734000704730B4044654E8000F00EB010544E8F0
:107350000053002BF7D1156030BC704730B40446A1
:1073600054E8000FA0EB010544E80053002BF7D1CF
:10737000156030BC704770B404464FF0000054E80C
:10738000006F0D68AE4207BF44E80023012044E8C7
:1073900000630E60002B1CBF0020F0E770BC70473C
:1073A00030B4044654E8000F88422CBF451A054605
:1073B00044E80053002BF5D1156030BC7047000045
:1073C000264B19680868B0E8F04F80F30988BFF3CE
:1073D0006F8F4FF0000080F31188704700000000AD
:1073E0000748006880F3088862B661B6BFF34F8F24
:1073F000BFF36F8F4FF4F07080F3118800DF00004F
:1074000000700200EFF30980BFF36F8F134B1A680F
:107410001EF0100F08BF20ED108A20E9F04F106019
:1074200008B44FF0400080F31188BFF34F8FBFF3D3
:107430006F8F0BF005F84FF0000080F3118808BC47
:1074400019680868B0E8F04F1EF0100F08BFB0ECE4
:10745000108A80F30988BFF36F8F70475C24002087
:107460000648804706480047FEE7FEE7FEE7FEE7DE
:10747000FEE7FEE7FEE7FEE7FEE7FEE779780200BB
:1074800001720200202A04DB203A00FA02F10020F7
:1074900070479140C2F1200320FA03F31943904052
:1074A00070470000004870475036030040EA01036F
:1074B0009B0703D009E008C9121F08C0042AFAD2AA
:1074C00003E011F8013B00F8013B521EF9D270476E
:1074D000D2B201E000F8012B491EFBD27047002216
:1074E000F6E710B513460A4604461946FFF7F0FFC3
:1074F000204610BD421C10F8011B0029FBD1801A48
:10750000704730B504460020034600E05B1C934200
:1075100003D2E05CCD5C401BF8D030BD064C074D7B
:1075200006E0E06840F0010394E807009847103453
:10753000AC42F6D3FFF768FE104903003049030060
:1075400070B58C1810F8015B15F0070301D110F825
:10755000013B2A1106D110F8012B03E010F8016B52
:1075600001F8016B5B1EF9D12B0705D40023521ED5
:107570000DD401F8013BFAE710F8013BCB1A921C3D
:1075800003E013F8015B01F8015B521EF9D5A1423B
:10759000D8D3002070BD00002DE9FC410025DFF8A4
:1075A000948000954FF4807601242F460195304653
:1075B00005F000FB38B1D8F80403204203D0304670
:1075C00005F0EEFA2543361D64007F1CB6B2082F85
:1075D000EDD34FF4BE74204605F0ECFA48B12046D6
:1075E00005F0DEFA45F000456A460221002005F06C
:1075F0001DFA15F0FF0F16D0012600242E420ED0E2
:1076000008EB8401D1F81005D1F81015C0F305205E
:10761000094AC1F3014152F8242002B19047760093
:10762000641C082CEAD3002D02DA684608F0BEF884
:10763000BDE8FC81006000408C2D002070B54FF447
:107640008076304604F042FD114CB50560B13046FD
:1076500004F043FD0120C5F80803607920B901203A
:1076600060712168002088474FF48276304604F02C
:107670002DFD00280AD0304604F02FFD0220C5F869
:1076800008032168BDE870400120084770BD000074
:10769000442300202DE9F041164E4FF4A0713046EE
:1076A00005F032FE0025EFF31184402080F31188AD
:1076B000D6F804758100304605F026FE0BF06AFB13
:1076C000381A20F07F46012E07D90BF055FB02280F
:1076D00003D000260BF064FB0543761EFAD225B1D9
:1076E00005494FF08050086040BFE0B280F3118838
:1076F000BDE8F0810010014004ED00E02DE9FE43FB
:107700004FF48278404605F017FE4C4F00254C4C54
:10771000012600B3404605F017FE94F82E0010B184
:1077200094F82F10D1B18DF8005061680191218932
:10773000ADF80810E26832B1218B6183626021816B
:10774000E56010B102E0257400E03E602168684603
:10775000884784F82F5094F82E0060B34FF4807758
:10776000384605F0E9FD30B3384605F0EDFD628B93
:1077700094F82D108A420AD9A2EB010080B26083EE
:107780002289A2EB0000626802EB400005E007D10D
:10779000E06828B184F82F60658305F0BBFD04E044
:1077A0008A4202D184F82F606583404605F0CCFD03
:1077B0002248001D06604FF48877384605F0BCFD6E
:1077C00048B1384605F0C0FD257402208DF8000050
:1077D0002168684688474FF48A77384605F0ACFD43
:1077E00028B1384605F0B0FD2574BDE8FE834FF0A2
:1077F00000484FF48C7967691DE000BFB7FA87F045
:1078000028FA00F109EB80058F43284605F094FD26
:1078100088B1284605F098FDA5F58C75E8088DF827
:10782000040045F38000401C8DF800608DF80500D1
:10783000216868468847002FE0D1D6E700700040F5
:10784000542E002008B500200090094869460068C1
:107850000AF0CCFC0098002808D006494FF0805070
:10786000086040BFBFF34F8FBFF36F8F08BD0000AC
:107870005424002004ED00E070B54FF08052012444
:10788000D2E94C100023082906D1CD06C5F80C31E9
:10789000C5F810315E4D2B60082955D15D4D2D681E
:1078A0005D4E35605B4D2D1D2D68361D3560594D83
:1078B00008352D68361D3560564D0C352D68361D42
:1078C0003560544D10352D68361D3560514D1435D9
:1078D0002D68361D35604F4D18352D684E4E2036BB
:1078E00035604C4D1C352D68361D3560494D2035B1
:1078F0002D68361D3560474D24352D68361D3560A1
:10790000444D28352D68361D3560424D2C352D6887
:10791000361D35603F4D30352D683F4E4036356061
:107920003C4D34352D68361D35603A4D38352D685F
:10793000361D3560374D3C352D68361D3560354D6B
:1079400040352D68361D3560082904D1050002D167
:10795000334E324D3560082904D1050002D1314E35
:10796000FB253560082908D1050006D192F8586238
:107970002D4A156866F303051560082904D1020035
:1079800002D12A4D8A012A60082906D128480168B7
:10799000C90702D06FF0010101602648016841F477
:1079A00070010160BFF34F8FBFF36F8F4FF0102155
:1079B000D1F80002002803DBD1F80402002822DA03
:1079C0001D4A14601D480468002CFCD01224C1F824
:1079D00000420568002DFCD0C1F80442016800296E
:1079E000FCD0136001680029FCD0BFF34F8F114811
:1079F0007C380168124A01F4E06111430160BFF371
:107A00004F8F00BFFDE710490E48086070BD0000B1
:107A1000380500400404001020C5004048810300E0
:107A20008C56004018F50040E40E0040409602409D
:107A30000004004088ED00E004E5014000E401405E
:107A40000400FA050090D003B82400202DE9F04787
:107A5000104E062700244FF4A0784FF4803900BF61
:107A600008EB840509FA04F0715961B1D6F80413E2
:107A7000014208D02946304605F018FF0648D0E9F3
:107A8000002128469047641CE4B2BC42E8D3BDE81C
:107A9000F087000000B00140482E00200148006837
:107AA000004700004C23002002E008C8121F08C154
:107AB000002AFAD170477047002001E001C1121F6F
:107AC000002AFBD1704700000121202803DA814001
:107AD0000548014003E0402802DA2038814009B11E
:107AE0000120704700207047FC06FFBD10B560B153
:107AF00059B102780B785208B2EB530F05D1062228
:107B0000401C491CFFF7FDFC08B1002010BD0120FE
:107B100010BD800701D00020704701207047C36866
:107B20008B4206D811440069491E814201D80120C8
:107B300070470020704790F82400012801D01F20D2
:107B40007047EE20704710B501220221002001F09D
:107B5000EFF908B1072810D107220221012001F016
:107B6000E7F908B1072808D100210A22084601F0E8
:107B7000DFF908B1072800D1002010BD10B500784A
:107B800060B10C480C49401AC008032101EB0040C9
:107B90000AA105F011FA07F099FD03E003210B4853
:107BA00000F079FC002803D0BDE8104000F0D6B802
:107BB00010BD0000F849030040490300457261739D
:107BC0006520626F6E64732100000000F0240020C5
:107BD00070B58CB015460E4600236C46C3F10F01FC
:107BE000415CE1545B1C102BF8D30D2104F1100013
:107BF000FFF775FC0020C0F10F02315C2244401CED
:107C000011740328F7D3684646DF0020C0F10F0146
:107C1000214491F820102954401C0328F6D30CB0BD
:107C200070BD022001F086B80149C97800F0F6BDA8
:107C30001023002070B50024064D06E0686801217D
:107C400010F8340005F0BAFE641C28788442F5D39D
:107C5000002070BD60230020F8B516460C4605468E
:107C60000A2A01D20720F8BD05F0A0FF18B905F0D7
:107C700061FF0028F7D1134F202113487D603C702D
:107C8000BE60FFF72CFC0020C7E904000F4E0DE09A
:107C900005EBC4003168009181788DF801100078FF
:107CA0000B4A694605F0D6FE0028DCD1641EE4B21A
:107CB000EED2BDE8F84005480021064A001D00F05C
:107CC0005FB8000060230020A82E0020B832030017
:107CD00095A902003198020072B605F00DFA00BFB6
:107CE00005F04EF80028FBD111481249401AC4088B
:107CF000012000EB044010A105F05EF91148006876
:107D0000C00700D000BE022000EB04400EA105F029
:107D100053F9BFF34F8F0B48E43801680E4A01F462
:107D2000E06111430160BFF34F8F00BFFDE700002A
:107D3000F849030040490300466174616C20657294
:107D4000726F7200F0ED00E053797374656D20720C
:107D500065736574000000000400FA050EB500218B
:107D60000091CDE901106A4644F20100FFF7B4FF2B
:107D70000EBD0000014801F0FABD0000C023002044
:107D80003AB100680129426100D000210161002060
:107D9000704707207047000038B511480823582263
:107DA000416800910F49006803F03BFF002815D19E
:107DB0000D4A69460D4801F0DFFD04000ED1012196
:107DC0000A4801F054FE0123094A1946074801F008
:107DD000A6FD0649012008390870204638BD00007C
:107DE000D834030090300020A5050300C0230020F4
:107DF000FFFF7F0070B50446007F0D4608B10020EC
:107E000070BDA26102F064FD401941F10001C4E9B6
:107E10000201206900B125612146BDE870400020C3
:107E200009F06EBC014600200877012009F068BC0B
:107E300030B5EFF3108172B60D4A9468012324B176
:107E40000370002900D162B630BD93604FF0E0238B
:107E5000D3F88051074C25401560C3F88041D3F812
:107E6000844154605A17C3F8842100220270E8E765
:107E7000C82E0020FC06FFBD0B498A68002A11D0DD
:107E800000280FD1EFF3108072B60B684FF0E0229C
:107E9000C2F800314B68C2F8043100228A60002821
:107EA00000D162B670470000C82E002070B50546AC
:107EB00008680C46411C04D004F04BFE206804F016
:107EC00089FD6068411C02D0002104F065FD29682D
:107ED000A069C1F82405607D227D29681043C1F89E
:107EE0006C05D4E900122868C0F81425C0F80C15F8
:107EF000207D012814D1A068411C02D0002104F08B
:107F00004BFDE068411C04D004F023FEE06804F05F
:107F100061FDD4E902122868C0F80825C0F81015E0
:107F200070BD70B5054608680C46411C04D004F0CD
:107F30001AFE206804F058FD6068411C02D0002140
:107F400004F033FD2968A069C1F82405607D217D16
:107F50002A680843C2F86C05D4E900122868C0F802
:107F60000C15C0F81425207D012814D1A068411CEF
:107F700002D0002104F019FDE068411C04D004F097
:107F8000F2FDE06804F030FDD4E902122868C0F880
:107F90000825C0F8101570BD03F014BA2DE9F0479C
:107FA000814605884A484FF000088AB00178424669
:107FB000284600F04BFC99F80500400701D4002149
:107FC00076E005F58077B8B205AB0122072106F00F
:107FD00061FD04003F48404A4FF00101A0EB020060
:107FE0004FEAD00001EB00460AD0204605F054FCD1
:107FF000024630462B46394904F0E9FF214629E084
:10800000284602F067FF4FF6FF71044688422BD1E5
:108010008A46069802F0C8FE0446504510D0014634
:10802000284602F037FF2846FFF7FEFDE0B9284654
:1080300008F088FD2846FFF7F7FD0028BFD013E0C1
:1080400006F0FEFE0446504508D1304624A104F057
:10805000B3FF0421284608F0A3FDB0E701462846F7
:1080600002F018FF4FF00108B8B22246072106F0CF
:1080700089FD07001BD0862F1ED005F00DFC02469F
:1080800030462B462349009404F0A9FF3946284680
:1080900008F086FD0021484606F0F4FBB8F1000F19
:1080A00002D0204602F000FF0AB0BDE8F0870121AF
:1080B000484606F0E7FBF7E7142217496846FFF742
:1080C000F5F9ADF80250684601F00AFFEFE700004D
:1080D0001023002080490300404903000C3E0300A8
:1080E000436F756C64206E6F7420616C6C6F63619C
:1080F0007465206E657720706565725F69642066BF
:108100006F7220696E636F6D696E6720626F6E6457
:108110002E000000283F0300303203002DE9FC4709
:10812000002517880646158090F82D0014468946CC
:1081300030B13A462146484600F0AEFB051E09D153
:10814000B0784FF00C0A18B32088C846001DB8421A
:1081500002D95046BDE8FC87684679DF0028F9D18E
:108160002088032108F8001020881921401C80B2C3
:10817000208008F800102088401C80B2208000EB8E
:108180000801BDF8000009F0CCFC218808442080DB
:10819000F0780222C8B1218896F9033001F1030C6E
:1081A0004846BC45D5D8425421884FF0010C491CA3
:1081B00089B2218000F801C02188491C89B2218040
:1081C00009F801302088401C20807068B8B12188EF
:1081D00090F9003001F1030C4846BC45B9D842542F
:1081E00021880A22491C89B2218042542188491CD5
:1081F00089B2218009F801302088401C2080308914
:1082000050B1CDE900474B460622022106F1080095
:1082100009F0B8FD051E9DD1308A50B1CDE9004767
:108220004B460722032106F1100009F0ABFD051EA5
:1082300090D1308B50B1CDE900474B461522142127
:1082400006F1180009F09EFD051E83D1306A30B199
:108250003B462246494601F052F9051EDBD1706AC1
:1082600030B13B462246494603F080FB051ED2D181
:1082700096F82C0038B13B4622464946304608F075
:10828000CBFD051EC7D1307838B13B462246494662
:10829000304603F02FFC051EBDD128465AE718B51D
:1082A00004460020ADF8000013466A46204600F060
:1082B00006F8002802D0BDF80000204418BD70B5B3
:1082C000E0B1DAB1002402E0045D2C44A4B2651CE4
:1082D0008D4206D21688A642F6D8061976789E42B6
:1082E000F2D18C420AD2A31C005D9BB200B1401EA9
:1082F0000004000C02D01C188C4201D9002070BD73
:10830000138070BD80F8301070472DE9F0410D00EA
:10831000044606D02CB195F87A000026012803D037
:1083200006E00E20BDE8F08195F89800012821D0E4
:108330004FF00108A6702C2205F17801201DFFF7EF
:10834000B5F884F83060D5F8A4006063D5F8A800CB
:10835000A0634FF6FF70A4F8240404F58260C4F80B
:108360002004C4F82664A4F82A6484F82C642078D5
:1083700010B104E00720D5E7FF2084F8540004F191
:1083800055072046C4F81074FFF7D5FBA4F8140471
:1083900004F2144239462846FFF7C0FE0028C1D136
:1083A00004F23120C4F818042046FFF7C4FBA4F8F7
:1083B0001C0404F21C4205F13C00D4F81814FFF729
:1083C000ADFE0028AED184F85180208BA4F848007F
:1083D00084F83C80266484F8506060690021606401
:1083E000454604F13C02781E72DF00289AD12570C0
:1083F00098E710B50288102A1BD0112A20D0262A0F
:108400001DD1007A0C46012801D0022817D1A0788E
:108410000521401CB0FBF1F201FB1201204600F0E7
:108420003AF800280BD0A16B002908D0BDE8104015
:108430000847C27B012A02D18088A1F8240410BD1C
:108440000C46002184F82E148088B4F82414884245
:10845000F5D120790028F2D10121DFE710B50446DB
:1084600090F8540074DF012084F82E04002084F872
:10847000300484F850000621204601F01AFF00283D
:1084800008D1A178204600F006F810B1A16B01B127
:108490008847002010BD2DE9F05F044600780F46A4
:1084A00098B1A7700025C4F82654A4F82A5484F87B
:1084B0002C54A079012608B1012F09D0E07980B1B0
:1084C000012F05D0022F03D00BE00820BDE8F09F5C
:1084D000616B21B184F82D640820884701E084F89D
:1084E0002D5404F2274100200A5C0AB1304603E013
:1084F000401C0628F8D300204FF002084FF0030B71
:10850000012F06D0022F0CD0032F0FD0042F15D12E
:1085100010E0A17929B194F8241011B908B13046BE
:108520000DE0E17911B108B1404608E0207A08B1C8
:10853000584604E0607A08B1042000E02846A070A4
:10854000616B41B1032801D0042804D1607910B1D6
:1085500094F82E0498B184F82F5404F13C001821AB
:108560000746FEF7BCFF84F83C6004F12C0006F0DF
:1085700099FD58B194F82C0084F8510008E084F873
:10858000305484F82F6407208847E6E784F8516068
:1085900094F8240058B104F1280006F083FD20B1BE
:1085A00094F8280084F8520001E084F8526084F8BE
:1085B0005050A27804F2264104F582694FF0060A71
:1085C000052A64D2DFE802F07C030F22420084F81F
:1085D0003160C4F82054C4E9101584F83C80802030
:1085E000A4F8480055E084F8318094F824203846F7
:1085F00012B10722027001E080F800B0228A828165
:10860000C4F820544160E168B96042E06069B86034
:10861000208BB88194F824003D460028204602D0E3
:1086200084F83CA001E084F83C6009F077FB50B18D
:1086300085F814800421204601F03BFE38BB05215B
:1086400084F8311021E084F831B01EE0E069B860B0
:10865000208CB88194F824003D460028204602D0A2
:1086600084F83CA001E084F83C6009F057FB48B175
:1086700085F814800421204601F01BFE38B984F8E7
:1086800031A002E0042084F83100C4F82094A078DE
:1086900078B13A4604F15400D4F8201472DF00286F
:1086A0007FF414AF94F8301094F8540073DF00286E
:1086B000F6D1616B11B194F831008847002005E7CD
:1086C00084F83150F5E7000070B5040012D001467F
:1086D0001C221448FEF7EAFE1248134D056020687C
:1086E00050B17ADF002806D120680168296040680F
:1086F000686005E00E2070BD0B487BDF0028FAD1D2
:1087000008484FF6FF711438084A20F8041B054941
:10871000343901600021FFF733FB0028EBD0032040
:1087200070BD0000FC290020C8220020B51C0300F9
:1087300010B5044600F0A6F8002805D02146BDE893
:108740001040024803F0ECBA10BD0000282A0020B7
:1087500070B515460E46044609F0ECFA002809D01B
:10876000054800EB8400C0692A463146BDE87040E8
:1087700001F0CCBD70BD0000182A002010B50446E1
:1087800000F080F8002805D02146BDE810400248DE
:1087900003F0C6BA10BD0000302A002010B5044610
:1087A00000F070F8002805D02146BDE810400248CE
:1087B00003F0B6BA10BD00002C2A002070B50546A3
:1087C000002400F05FF838B12946044803F0A8FA05
:1087D00008B1022400E00124204670BD242A0020B4
:1087E00070B50546002400F04DF838B1294604481C
:1087F00003F096FA08B1022400E00124204670BD7F
:10880000202A002010B51821034803F064FA182824
:1088100000D0C0B210BD0000182A002070B5054677
:108820000C46084609F086FA60B1284600F02AF89E
:1088300040B10548294600EB8400BDE870401C307B
:1088400003F06EBA002070BD182A002070B50546EE
:1088500016460C46084609F06DFA00280ED0284648
:1088600000F010F8002809D00548324600EB8400DB
:108870002946BDE870401C3001F016BD70BD0000F7
:10888000182A0020142801D300207047014601480F
:1088900003F046BA1C2A00207CB5054608880C4621
:1088A0000930904201D90C207CBD68466DDF00285C
:1088B000FAD121880820685420881B21401C80B2EE
:1088C000208029542088401C80B220802844DDF874
:1088D00001100160BDF8051081802088801D80B2E4
:1088E00020809DF80010490800D0012129542088DB
:1088F000401C208000207CBD38B501880446212919
:1089000030D012DC1E481F4A1029A0EB02004FEAAB
:10891000D0004FF0030202EB00400ED011292AD103
:10892000BDE8384018A104F047BB3B2924D05629A4
:1089300021D18088132176DF0EE017A104F03CFBE3
:10894000072000F017FB08B1FFF708FA1548A188C7
:108950004180154803F042FB00280CD0BDE83840A8
:10896000FFF7FCB900200090A08869468FDF00283F
:1089700001D0FFF7F3F938BD8088132176DFEBE7EC
:10898000F849030040490300446973636F6E6E65E4
:10899000637465642E000000436F6E6E65637465DA
:1089A000642E000090220020E424002010B51A4C10
:1089B0000188606810290ED011292BD1401E6060FB
:1089C00028D1FFF7C0F8002824D02168002921D041
:1089D000BDE810400847D0B900210122084600F048
:1089E000A7FA08B107280FD107220221012000F0C1
:1089F0009FFA08B1072807D104220221002000F0C5
:108A000097FA20B1072802D0216801B18847606831
:108A1000401C606010BD0000C02200202DE9F0471E
:108A200001883B4E40F2F3194FF6FF7510291BD019
:108A300011293ED0122954D0502946D1C188F2893B
:108A4000841D914241D1618902293ED186883046F8
:108A500002F0EEFA050038D004F10C0000F022F923
:108A6000A8B3294630464EE0C17B878804460129D9
:108A70002BD1A846284602F0DBFA050017D02F803C
:108A800000202872234843464A460168C5F80A1068
:108A90004068C5F80E0004F1100105F10A0002F06B
:108AA0008BFB6872F08900280FD129462AE0042048
:108AB00013E0808802F0BCFA040006D06068FFF77B
:108AC000B1F908B108F050F82580BDE8F087FFE75C
:108AD0006868FFF7A7F90028F7D0BDE8F04708F06D
:108AE00043B887880646384602F0A2FA0400ECD064
:108AF0002B464A4606F1080104F10A0002F05CFB2D
:108B0000607221463846BDE8F04700F03FBD0000E6
:108B1000FC290020C82200202DE9F04F0446868859
:108B20000188424897B0834610290CD0112950D0B3
:108B3000103019296AD01A2974D1217A0C09042C11
:108B40004DD301224CE0394D083DA868C0430B903D
:108B500069680BA803F008F90B990CA800F0B0FCA9
:108B60002C220CA96846FEF7A1FC0027E946A8467E
:108B700010E000BF09EB47005FF00005B0F804A06B
:108B800008EB85005146001D03F08AF86D1C1E2D70
:108B9000F6D37F1C0098B842ECD8142E05D317B03A
:108BA0000420BDE8F04FFFF7D9B83146584603F02E
:108BB000C2F8314608F1040003F0BDF8E07B02285A
:108BC00030D117B03146BDE8F04F1848001D03F012
:108BD000B2B817B03146BDE8F04F03F061B80022DB
:108BE000314601F061FB032C01D3012200E0002299
:108BF0000E4831460C3001F057FB022C01D3012204
:108C000000E0002209483146083006E0217A0029B8
:108C100008D1617AC1F3C002314617B0BDE8F04F08
:108C200001F042BB17B0BDE8F08F0000202A002001
:108C300010B504460748007800280AD0204602F004
:108C400025F8204608F0B2F92046BDE8104001F0B2
:108C50007BBC10BD002300200A46014610460A884E
:108C6000102A05D0112A03D0502A03D100F00EBDDE
:108C70008988018070470288102A01D0112A01D109
:108C80008088088070470A46014610460A88102AE4
:108C900005D0112A03D0502A03D100F0F7BC8988EF
:108CA00001807047007800F0010070470149085CBE
:108CB00070470000D9300300084908B5085C0090EF
:108CC000684603F0E3FED0F810050099C84010F0A4
:108CD000010000D0012080F0010008BDD930030060
:108CE0002DE9FC410646C0074FF000050ED0104F9D
:108CF00000240122385D009500231146019503F000
:108D0000D5FD641C042CF4D300F04EF8B0070DD54B
:108D1000074E0024361D0022305D032300951146C6
:108D2000019503F0C3FD641C042CF4D3BDE8FC8161
:108D3000D5300300094908B5085C0090684603F087
:108D4000A5FED0F80425009B0121994021EA0203E9
:108D5000C0F808351140C0F80C1508BDD530030027
:108D60000249085C012103F008BF0000D530030070
:108D70000249085C002103F000BF0000D530030069
:108D8000084908B5085C0090684603F07FFED0F8FB
:108D900004050099C84010F0010000D0012080F0C7
:108DA000010008BDD530030010B500242046FFF7B0
:108DB000D7FF641C042CF9D310BD10B50024204645
:108DC000FFF7D6FF641C042CF9D310BD10B5024682
:108DD000064B4FF0FF3000215C5C944201D1084605
:108DE00010BD491C0429F7D310BD0000D930030081
:108DF00070B50C4E0C004FF0000530600BD0012018
:108E000000F06AF808B1022004E0002000F064F8E5
:108E100000B10B202070706810B9FEF794FE054673
:108E2000284670BDC022002010B5002000F0CEF909
:108E300008B1062806D1012000F0C8F908B10628BB
:108E400000D1002010BD00002DE9F0470D468146FD
:108E5000FFF7BCFF0446042836D2DFF874801B48B5
:108E60001C4EA8F10C0725B3012D0ED0022D2BD1DD
:108E700004EB440030444578002D25D0B968002922
:108E800022D02846BDE8F047084704EB4401755C52
:108E90000E44717849B10E4A4FF48061093A8068F6
:108EA000FEF7A8FF08B987F80390B17808F8041016
:108EB000E2E78068FEF7B6FF04EB4401314418F89E
:108EC00004008D78A842D7D0BDE8F087E0300300D9
:108ED000BC22002098290020042801D2FFF7ECBE14
:108EE000002070470146104810B54088042907D07B
:108EF00007290ED00A2915D1BDE8104008F042B864
:108F0000132176DF0CE000280CD0BDE81040FEF7FE
:108F100025BFA0F57F41FF3904D10448FFF79EFA31
:108F20000828F0D110BD000090220020F02400207D
:108F300070B50023042810D20D4D00EB4004012A27
:108F400002D101290CD00022094E00EB4000304430
:108F500061B1012906D0022906D00723184670BD49
:108F60000E30C2B22A55F9E74270F7E78270F5E792
:108F700098290020044A014600201279D20702D025
:108F8000084600F04DB87047B022002070B5064684
:108F90001E480024C0E90161B0071FD50025012249
:108FA00011462846FFF7C4FF6D1C0446042D02D26B
:108FB000002CF4D012E08CB9332202211448FEF7C1
:108FC0004BFE04000AD1FEF735FE040006D110481E
:108FD000104A0021001FFEF7D3FE0446F00712D00E
:108FE0000120FFF77DFE74B909480B4A00210C38B7
:108FF000FEF7C6FE040006D10548084A01210838DC
:10900000FEF7BEFE0446204670BD0000B0220020E0
:10901000EC300300D992020065B20200237C02000A
:109020002DE9F05F664C05460026607818B10020F7
:10903000607002F0FFF8634F4FF47A6B4FF4FA7AE6
:109040004FF47A784FF00109182D62D2DFE805F06D
:109050000C1414303F4C62676B736B73B47C7C7C74
:109060007C7CA2A5A8ABB4B40020FFF779FE3868D9
:10907000FEF7D8FE064654E00020FFF781FE0028E8
:109080004FF0000008D0FFF76BFE022D02D14FF425
:10909000E16009E0584607E0FFF76AFE022D01D1C2
:1090A000C82001E04FF4C87025700AEB802129E048
:1090B0000020FFF765FE00284FF0000004D0FFF706
:1090C0004FFE4FF44870EFE7FFF752FEE8E700204D
:1090D000FFF756FE00284FF0000002D0FFF740FED9
:1090E000D8E7FFF745FEDDE70020FFF749FE00283F
:1090F0004FF0000002D0FFF733FE01E0FFF738FE2B
:1091000031492570B1FBF8F100223868FEF772FE94
:1091100006463CE00020FFF70DFE257008E0002029
:1091200047E0257033E084F801900120FFF702FE4C
:1091300000226621E9E784F801900120FFF7FAFD9B
:1091400000224FF40071E0E77868FEF76BFE0646F8
:10915000D5F1110000D02EB10220FFF701FE002052
:10916000A07014E001280DD980B200EBC00101EB22
:1091700000110AEB413191FBF8F100227868FEF70B
:1091800039FE06460220FFF7F3FD84F802903046D0
:10919000BDE8F09F02F04EF8C3E702F04BF8BEE7DF
:1091A00002F048F804E002F045F80020FFF7E0FD87
:1091B0000120FFF7DDFDB4E7FFF7FFFDB1E7000099
:1091C000B0220020E0300300F4210300012109F067
:1091D00059B900002DE9F84F0546861C00208DF88E
:1091E000000091460F464FF0010A6846FEF720FE48
:1091F0001B4C04F21C4860683860D4E90101194F27
:10920000401A3968081A0EE00121404602F0A6FD16
:1092100002F0BAF90146404602F0A0FDD4E901018E
:10922000401A3968081A401C8642EDD8B9F1000F7F
:1092300003D0052065F3891002E0062065F39F50F6
:1092400061683A68114004EB8101C860606830448D
:1092500060609DF80000FEF70FFE5046BDE8F88FF5
:1092600080320020FC23002070B50D4604460A29F8
:1092700002D10D21FFF7F8FFA0682268411CA16010
:109280001554D4E90101814204D32046BDE8704061
:1092900002F0D1BF70BD000004488168406881427F
:1092A00001D101207047002070470000803200206B
:1092B000034630B5074800210478426806E000BF45
:1092C00002EBC10005789D4203D0491CA142F7DBA7
:1092D000002030BD6023002000780221FFF7B4BDDC
:1092E0001CB5044601F0F6FD00236A46092105F08D
:1092F00013FD052805D10348012241792046FFF7D7
:10930000A5FA1CBDD02200201CB504460020009008
:1093100042F6A620ADF8000001208DF802000848B2
:1093200001AA6946006801902046A0DF002805D107
:109330000448012281792046FFF788FA1CBD00000D
:109340000C310300D022002005494FF0FF320828DD
:1093500041F8202002D3084480F8582070470000CC
:109360008C2D0020F0B54FF0FF3512B100230826F8
:1093700001E008230C260C4C05E000BF54F82370D4
:109380007F1C04D05B1CB342F8D32846F0BD2618DE
:109390005DB286F8305044F82310002AF5D1E11868
:1093A00081F85800F1E700008C2D002002490844A4
:1093B00090F93000704700008C2D002070B50446F5
:1093C0004FF6FF750A462846AC4209D14FF4807427
:1093D0002146104602F07FFC80B2A0420BD070BD47
:1093E000FF2CFCD82146104602F065FC90F0010FDE
:1093F00001D0204670BD284670BD000070B5084CF5
:10940000050009D010342168002907D008682060C1
:10941000496828468847F6E70834F4E770BD00003D
:10942000782D0020054A012120B1012805D1917035
:10943000FFF7E4BF51700020FAE77047782D002055
:109440000D4810B54178022915D1002101700A4656
:1094500001460223C06809F011FB01280BD0074820
:109460000749BDE81040401AC008032101EB004045
:1094700004A103F0A1BD10BD90220020F849030013
:10948000404903004B686F6E6720677569206475FB
:109490006F63206475206C6965752064656E20714A
:1094A000756575650000000010B5D0E90234D1E99A
:1094B0000220D11AA04101D3012010BD002010BD0F
:1094C00073B58CB00646002000900D9880B1002442
:1094D0006D4621460DA802F023FC30B1009805EB43
:1094E000400084800098401C0090641C142CF0D331
:1094F0002C2269463046FDF7D9FF0EB070BD2DE92C
:10950000F04117880646B81D14460D46984202D908
:109510000C20BDE8F0813188072206290AD34FF4D8
:10952000486C4FF6FF73614501D9994202D17088AA
:10953000062801D21046ECE7604501D99842F9D1DE
:10954000994203D0984201D08142F3D80520E855D2
:1095500020881221401C80B2208029542088401C81
:1095600080B220804119308808F0DBFA2188084455
:1095700080B220804119708808F0D3FA218808440D
:1095800020800020C5E7FEF7E9BB000038B54A7A25
:109590000F4B62B100220A725969002906D00122DC
:1095A0008DF80020ADF802006846884738BD0A7A79
:1095B00062B19B684C68024619462046FEF71AFCC9
:1095C0000028F3D0BDE8384007F0CEBA5B68F1E779
:1095D000FC290020F0B585B016460F4604461D460E
:1095E00014220B496846FDF761FF0A488DF80870A0
:1095F000ADF80240ADF80A608DF80C5001780022F9
:109600002046FFF723F9684600F06AFC05B0F0BD7C
:1096100044320300102300201048114910B5401AAD
:10962000C008032101EB00440E494B78C8681AB109
:10963000022B12D1012202E0022B0ED100220A706D
:1096400002230022074909F019FA012805D0204613
:10965000BDE8104004A103F0AFBC10BDF849030001
:1096600040490300902200204B686F6E67206775A9
:10967000692064756F63206475206C69657520646A
:10968000656E2071756575652000000030B4CB886B
:1096900084888A1DA3420BD15389012B08D1C3684A
:1096A000002B05D08C880146127B204630BC184721
:1096B00030BC704770B588B0064600200590069013
:1096C000ADF81410ADF816100190029001AA05A98A
:1096D000304690DF050021D004F0DEF80346114843
:1096E00011493246401AC108012000EB01400446EE
:1096F0000E4903F06CFCBDF8042012B9BDF8060059
:1097000028B1BDF80630204609A103F060FCBDF881
:1097100008201AB12046164903F052FC08B028462A
:1097200070BD00005849030040490300943903000C
:10973000546865207265717565737465642054584A
:109740002F5258207061636B6574206C656E67746E
:109750006820697320746F6F206C6F6E6720627968
:109760002025752F2575206F63746574732E000096
:10977000E039030070B504460948012102F009FBF5
:10978000BFF35F8F0025002808D1204601F076FE48
:10979000002803D1BFF35F8F0148056070BD000052
:1097A000DC2200202DE9FF410C4620B14FF4064099
:1097B00004B0BDE8F0812079002748F2096538B18E
:1097C00041F61D5601281BD0022826D0681DEFE760
:1097D0000220207102970397E0680190694601A872
:1097E00006F03AFE50B102988188E180008820811D
:1097F000BDF80010029806F0ADFED9E72846D7E77D
:109800000A4B6A460021A01D06F0DEFD38B107496B
:1098100018398F61CF61A842CAD13046C8E70348E2
:109820008188019806F096FEF5E70000902300205D
:1098300070B500240F4D10E0686800EBC406307866
:1098400004F070F97178012901D0012100E00021B4
:109850004140307800F098FA641C28788442EBDBB1
:10986000D5E90401084303D0BDE8704007F066BFA6
:1098700070BD00006023002010B50F2003F09EF89B
:10988000102003F09BF80F2003F0E8F8102003F0FD
:10989000E5F806480649BDE81040401AC008032113
:1098A00001EB004003A103F087BB0000F84903006F
:1098B000404903004461206B686F692074616F2028
:1098C000646F6E6720636F0006480078012805D03A
:1098D000002805D15FF0100003F0C0B80F20FBE7AF
:1098E000704700009022002010B50021024802F0CD
:1098F00050FA80F3100010BD9C3600204FF48032E7
:109900008A400168C1F848230068C0F808237047FE
:109910004FF4A07202EB810189B200F0A5BA2DE9E3
:10992000F04105460E464FF4A07000EB860081B270
:1099300028684FF48034B440984622F07F47C0F83E
:1099400008432868C0F84843286803F0D7FC286813
:1099500000EB8600C0F840752868C0F84443B8F1B1
:10996000000F02D02868C0F80443BDE8F081006809
:10997000D0F804057047000070B54379234C44F8D3
:1099800023204279231D03EBC202224C1579204A81
:10999000121BD4082DB10825022000EB04401EA1A3
:1099A00030E005680A88C5F8082590F90420897810
:1099B000002A4FEA411104DB02F1E02282F8001490
:1099C00005E002F00F0202F1E02282F8141D90F986
:1099D00004100122002909DB01F01F0502FA05F538
:1099E0004909890001F1E021C1F8005141790025C0
:1099F00003EBC1010A71417943F83100032000EB08
:109A000004400EA103F0D8FA284670BD542300206C
:109A1000F04903004049030052544320696E7374B7
:109A2000616E636520616C726561647920696E693D
:109A30007469616C697A65642E0000005254433A7F
:109A400020696E697469616C697A65642E00000032
:109A500090F90400002809DB00F01F020121914069
:109A60004009800000F1E020C0F8001270470A466B
:109A7000022100F07FB94FF4827100F0F5B900685F
:109A800001210160704700680121416070472DE9A4
:109A9000F05F07460C464FF4A07000EB84001FFAFD
:109AA00080FA38684FF48036A6409B4622F07F4506
:109AB000C0F848633868C0F808633868D0F804858F
:109AC00000EB8402D2F84095C2F8408551463868D0
:109AD00003F014FCA9EB080020F07F40012806D118
:109AE000102003F063FF5146386803F007FC386824
:109AF000D0F80485C0F84463A5EB080121F07F414C
:109B00003868012900EB840010D0C0F8405538684F
:109B1000D0F804156FF07F4C6A1A521E22F07F4273
:109B2000ACEB0B03934217D362B118E06D1CC0F885
:109B30004055102003F03AFF3868D0F8040540453E
:109B40000AD10CE000EB84006D1CC0F84055386869
:109B5000D0F80405884202D00D20BDE8F09F012214
:109B60003146384600F006F90020F6E709490120A1
:109B7000096809B1002070470749CA69002AF9D16C
:109B8000044A283212688968491E8A42F3D10220A9
:109B900070470000143700205C24002013460A465A
:109BA0000021FFF717BD00002DE9F843104D0F46C7
:109BB00080461E4691466946286802F045F8040032
:109BC00014D01C21FDF78BFC01202071C4F81490E7
:109BD000380BC4F80080C4E902606946286802F0C6
:109BE00054F806F009FB0020BDE8F8830420FBE7E9
:109BF0004833030010B503780022072B06D2DFE8B4
:109C000003F005040610202930000A7010BD01235E
:109C10000B7003898B818388CB81C06888600A744C
:109C200010BD02220A7002898A818288CA81C268B4
:109C30008A60807D062802D00020087410BD0120B3
:109C4000FBE703220A70C2888A810289CA81C06840
:109C5000886010BD04230B70C0888881CA818A6027
:109C600010BD0520087010BD70B5064D06460024D5
:109C700055F8241009B130468847641C042CF7D3EA
:109C800070BD0000F02E002030B50446006887B09B
:109C90000D46806800281FD018216846FDF71FFC7C
:109CA0000195A0680590207910B1012810D107E036
:109CB00001208DF8000020690290E068039005E023
:109CC00002208DF80000E0680003029060690490B3
:109CD000206881686846884707B030BDF0B585B018
:109CE00017460C0005463AD0112C38D0082C36D037
:109CF0001C481D49401AC6080D2C11D0204603F0FF
:109D0000CBFD0246012000EB06402B46174903F02D
:109D10005EF92A460721684601F04AFF02941BE0DB
:109D2000022000EB06402A46114903F049F92A4671
:109D30000321684601F03CFF27B13878C00701D005
:109D4000012000E002208DF8080000208DF80C00B2
:109D500041F20110ADF80A00684600F0CFF805B0F6
:109D6000F0BD00008849030040490300F4400300AF
:109D7000E43F03000368C3F84413002A02D00068DC
:109D8000C0F80413704700002DE9F84F0E4634491F
:109D9000804601EB5001C007097801D00F0901E0AE
:109DA00001F00F074FF00009424601204946FDF738
:109DB00069FBDFF8B0A004460D46052F4ED2DFE860
:109DC00007F003161B282C00002E47D00121404627
:109DD00007F096FB8DF800906846FEF729F850468C
:109DE000D0E904120C431543CAE9044532E00EB130
:109DF000022114E0002112E04EB10321404607F099
:109E00007FFB4046BDE8F84F012107F0ABBF0121C1
:109E100005E0002E22D1042101E02EB103214046AD
:109E2000BDE8F84F07F06CBB0021404607F068FB27
:109E30000021404607F096FF8DF800906846FDF738
:109E4000F7FF5046E243D0E904341A4024EA050102
:109E5000CAE904219DF80000FEF70EF8BDE8F88F6E
:109E6000A82E00206023002010B5006842581AB1C7
:109E700003F044FA012010BD002010BD10B50446C7
:109E8000408801F027F8A080024801682046BDE81C
:109E900010400847D822002010B50446808800F002
:109EA00063FF6080024801682046BDE81040084713
:109EB000E82200202DE9F04107460024064E074D18
:109EC00005E000BF56F8241038468847641CE8783F
:109ED0008442F7DBBDE8F0812C2D00200023002018
:109EE00010B50446408800F0F5FFA08002480168E4
:109EF0002046BDE8104008470432030001490968C4
:109F0000084700008032030070B586B00446142173
:109F10006846FDF7E4FAA0890125A0F54040ADF8B8
:109F2000040020782F4E062833D2DFE800F03203F9
:109F300003032C4AA08900F09BF930B9E08943F66D
:109F4000FE71A0F54040884223D8A07B8DF8080020
:109F5000207803280FD000208DF80900A068039016
:109F6000606850B109208DF8000060680490684670
:109F700004F024FE0DE00120EEE708208DF800003B
:109F80008DF81050F3E7A08900F072F908B1E0896C
:109F900030B17078002801D004F064FF06B070BDC5
:109FA000606830B10B208DF8000060680290757019
:109FB000DDE70A208DF80000BDF8040004F0F6FF8C
:109FC000F5E7606848B114208DF8000060680290E1
:109FD0004FF6FF70ADF80400C9E713208DF80000BC
:109FE000F6E70000EC22002038B504460F48007860
:109FF000B0B1A4F57F40FF380FD0684606F02CF8CA
:10A0000088B10521017001210171C480684606F004
:10A0100031F806F0E3F8002038BD48F2036038BD9F
:10A0200048F2016038BD48F2076038BD982300202F
:10A030000D4808B5007888B1684606F00DF880B183
:10A0400006210170684606F015F80848017809B144
:10A050000121017306F0C2F8002008BD48F201603A
:10A0600008BD48F2076008BD98230020B42F0020E7
:10A07000F0B587B014216846FDF731FA304C2078EE
:10A0800018B16846FFF7F0FD57E0201D01F063FEB0
:10A0900098BB40F6F8700168481C02D14FF01020C0
:10A0A00041694FF08050026940694B1C01D100FBAF
:10A0B00002F1244800220161A1F54051C16022490A
:10A0C00002F04EFA002823D121481C238C221F497C
:10A0D000006801F0A6FD04F0FDFA050016D0022D7F
:10A0E00014D000270126062D14D005A805F0B4FFD2
:10A0F00098B106700C2D1BD200E01EE0DFE805F0E1
:10A1000018101810181718171812141248F20A60AD
:10A1100007B0F0BD26706760B3E748F20760F7E765
:10A12000077105E0032100E00221017100E00671E2
:10A1300005A805F09FFF06F051F80020E8E70000B1
:10A1400098230020BC24002058330300002F002057
:10A15000C032030038B5040014D0694606F07CF91B
:10A16000B0B1BDF8000000EB80010B4800EB8100AE
:10A17000C16851B1A17A41B1C168491EC1600020D6
:10A18000A07238BD48F2046038BD48F2056038BDA1
:10A1900048F2096038BD00008C2F00201FB501A9CE
:10A1A000684606F011F904B010BD07B513460A461B
:10A1B0006946002006F008F90EBD07B513460A46A9
:10A1C0000021684606F000F90EBD20B119B1006803
:10A1D00008600020704748F204607047F8B50D46EB
:10A1E000040018D0BDB1694606F036F9B0B1BDF82B
:10A1F00000000C4900EB800001EB800001210C30D5
:10A20000666801F0ABFD2E6060680C30686001206C
:10A21000A0720020F8BD48F20460F8BD48F2096061
:10A22000F8BD00008C2F002018B10323002208F095
:10A2300075BA48F2046070470223002208F06EBA33
:10A24000094910B50A69042A0AD0084A096942F87E
:10A25000210005480121103001F080FD002010BDD3
:10A2600048F20B6010BD000078230020F02E002083
:10A2700043F6FE71A0F54040884201D801207047A6
:10A280000020704710B504460078182802D1FEF768
:10A29000B9FA207010BD10B504460078182802D114
:10A2A000FEF7B0FA207010BD0AB101F044BD01F014
:10A2B000F7BC70B50D460446B0F81414D0F810047D
:10A2C0000122FDF7ECFF00B1057004F13C0204F53A
:10A2D000826104F1540072DF70BD000070B5134656
:10A2E00000220546112900D10122074C33B1217902
:10A2F000FEF7ACFA00226178284600E06178BDE8FC
:10A300007040FEF7A3BA000018230020F7B51746E7
:10A310000E0011D00098002560B100242146684647
:10A3200001F0FEFC18B1A0B23946B0476D1C641CA8
:10A33000142CF3D32846FEBD0020FEBD406805F076
:10A34000ABBE000070B510B14FF4064070BD1C4CA0
:10A350000025207B08B1257301E000F0A5F82078E6
:10A3600008282AD2DFE800F02904080C102914225A
:10A37000BDE8704000F026B8BDE8704000F082B83B
:10A38000BDE8704000F064B8BDE8704000F040B82F
:10A390000620207060880A4900EB8000283901EB14
:10A3A00080004068BDE8704004F074B90720207058
:10A3B0006560BDE8704004F07BB948F20E6070BD86
:10A3C000B42F00201149F0B48A1C00200346A1F1EB
:10A3D00028050C18A67A4EB1A37200EB800405EB99
:10A3E0008404E66816B9247C012C0AD0401C80B293
:10A3F0000228EED30B704B804B60F0BC41F61D5031
:10A4000070471080F0BC00F03DB80000B42F002071
:10A410000C48418801EB8102A0F1280101EB820187
:10A42000CA6852B105210170074802218180016884
:10A4300000230122054801F0F7BF04220270496899
:10A44000F6E70000B42F0020A0230020BC24002049
:10A4500038B50A49084803240B684268898803EB29
:10A46000810153880470DB1C00201B0400909B0BAF
:10A47000034802F02DF938BDB42F0020A02300209E
:10A48000BC240020074910B54888091D06F034F89F
:10A4900018B1BDE81040FFF7DBBFBDE81040FFF783
:10A4A000B7BF0000B42F002070B5194C01212078EF
:10A4B00008281AD2DFE800F00419191C25292918E8
:10A4C0002089134A401C2081002060802073283A94
:10A4D00000EB800312F8233043B100232518401C01
:10A4E00080B2AB720228F3D3217070BD0123F5E76F
:10A4F0006068084940888A88C01C1044888002200F
:10A5000004E000F009F8062000E00720207070BD8C
:10A51000B42F0020A02300200A4909484988026876
:10A5200001EB81030749283901EB83014B68036084
:10A530004A6082880A810222828000200874704763
:10A54000A0230020B42F00202DE9F0430646808888
:10A550003288DFF85C8185B00746502A37D010DC9E
:10A560005449554B06F10A05A1EB03014FEAD1010D
:10A570004FF0020303EB0144352A3AD0362A07D1C3
:10A5800068E0522A02D0542AF9D102E000F01AFF02
:10A5900082E0142249496846FCF788FFADF8027052
:10A5A000384600F097FCADF8040000F011FA0022E4
:10A5B000444698F804103846FEF748F90022E1783E
:10A5C0003846FEF743F96846FFF758FC64E0307BF5
:10A5D000012861D1B07A01285ED13089A0F52451DB
:10A5E000023959D10121384600F040FF07F04AFBFB
:10A5F00052E098F80610FEF711F900284CD000221E
:10A6000098F806103846FEF721F9F288B2F5857FF2
:10A6100017D012B120462AA10BE02A88012A03D0C4
:10A62000204636A102F0CCFC6A88012A04D02046DC
:10A6300041A102F0C5FC04E0A98800223846A1DF50
:10A6400008B1002125E0012298F807103846FEF7EE
:10A65000FDF821E04FF0000998F80710FEF7DEF84A
:10A66000D0B1002298F807103846FEF7EFF8F288CC
:10A6700012B1204612A104E0AA88012A04D0204683
:10A680002DA102F09DFC03E0A87900B101208146D4
:10A690004946384606F096FF0022364998F80200EF
:10A6A000FEF756F805B0BDE8F04306F0ADBA00007D
:10A6B000D0220020404903004049030064310300D8
:10A6C000556E657870656374656420474154542005
:10A6D000737461747573207768696C65206765743D
:10A6E00074696E672043415220636861722076610D
:10A6F0006C75653A20307825780000004D756C74D3
:10A7000069706C65202825642920434152206368C4
:10A710006172616374657269737469637320666FD3
:10A72000756E642C207573696E6720746865206689
:10A73000697273742E000000556E657870656374DD
:10A74000656420434152206368617261637465727D
:10A7500069737469632076616C7565206C656E67DA
:10A76000746820282564292C2073746F726520304A
:10A770002E000000997F020070B504460078002882
:10A7800014D1608800F01EFE6588284600F0E2F9CA
:10A7900028B107480122C1782846FEF757F860889B
:10A7A000FEF79EFDBDE8704007F06CBA70BD00007A
:10A7B000D022002070B5204C00252570FEF722F82D
:10A7C0006070FEF71FF8A070FEF71CF8E070FEF74F
:10A7D00019F82071FEF716F86071FEF713F8A071F2
:10A7E000FEF710F8E07162780121182A18D0A278DB
:10A7F000182A15D0E278182A12D02279182A0FD0F8
:10A800006279182A0CD0A279182A09D0182807D002
:10A8100004F10C000560BFF35F8F2170002070BD54
:10A820000648074A801AC00801EB0040054902F0BB
:10A83000C3FB032070BD0000D0220020404903006C
:10A8400040490300543603007CB5044600780828CC
:10A8500037D1607A58BB207A1C4E4FF6FF7501281D
:10A8600011D0072802D008282BD121E0A08800F0C1
:10A870007BFA0446A84224D0012100F0F7FD2046CF
:10A88000FEF72EFD1DE0A0886A46012104F0B8F80D
:10A8900068B90198007850B1A08800F065FAA84224
:10A8A0000FD00122F178FDF7D1FF06F0ADF908E0F5
:10A8B000F068012805D1BFF35F8F044900200C31F7
:10A8C0000860BDE87C4007F0DDB90000D022002020
:10A8D00010B50B48FFF74BF8094A083AD2E904349F
:10A8E000C018D2E9063244F10001C31A71EB02022A
:10A8F00004D24FF08072801841F1000110BD0000B9
:10A90000C023002038B503F051F920B903F012F943
:10A9100008B1FDF723FA14480324144A0068009094
:10A920008DF801406946182003F094F808B1FDF74E
:10A9300015FA0F4A6946192003F08CF808B1FDF7A3
:10A940000DFA0121182003F039F80121192003F034
:10A9500035F808480849401AC00804EB004007A130
:10A9600002F02AFB38BD00009430030079E40200B5
:10A9700041940200F8490300404903004461206B00
:10A98000686F692074616F20786F6E672047504947
:10A990004F54450010B5C0B2FEF78AFC044600785B
:10A9A00003F0C0F801466078012801D0012000E0E2
:10A9B000002090EA010F08D00449D1E904010843BE
:10A9C00003D1BDE8104006F0B9BE10BD60230020E1
:10A9D0001CB5054AD2E90212CDE9001200226946EF
:10A9E00004F0D4F91CBD00007C31030003484FF68D
:10A9F000FF7181800121017000207047E02200205A
:10AA00002DE9FC41804600F065FA0024032501276A
:10AA1000A0F57F412646FF3908D06A46082103F099
:10AA2000EFFF18B90198841D8688056832462B46C9
:10AA300021464046B1DF042804D0082804D00B2862
:10AA400008D002E0112000E00020002F00D10B20F0
:10AA5000BDE8FC810027A80701D50125E6E73443BE
:10AA600003D0002426460325E0E70648064942466F
:10AA7000401AC008012101EB0040044902F0A0FA8D
:10AA8000E5E7000048490300404903001C39030082
:10AA90002DE9FC41804600F01DFAA0F57F410646F5
:10AAA000FF390ED001252A466D1C0027ADB26B463A
:10AAB0000821304603F0EEFF040006D0072C33D007
:10AAC00033E043F20200BDE8FC81019903230A1D33
:10AAD0000B604046891DB2DF040004D00C2C09D065
:10AAE000052C09D009E032460821104604F04AF846
:10AAF00004461AE0012700E000240821304604F053
:10AB000037F870B102F0C8FE0346094809493246D9
:10AB1000401AC008012101EB0040074902F057FA32
:10AB20000324002FBFD100E00C242046CBE7000017
:10AB300048490300404903009C38030004488088CA
:10AB4000A0F57F41FF3901D006F068B870470000DA
:10AB5000E02200200EB502A9019100F0BBF96A467F
:10AB6000012103F04DFF08B100200EBD01980078CF
:10AB70000EBD00002DE9F04107464FF6FF76104864
:10AB8000B3DF78B102F088FE02460E480E49401A43
:10AB9000C008012101EB00400C4902F011FA03202A
:10ABA000BDE8F081064C43F20305A41E32466188DD
:10ABB0003846AFDFA842F3D16088401C6080F5E7DB
:10ABC000E2220020484903004049030050380300B6
:10ABD000428800EB82020C328A4201D9022070477F
:10ABE0008188A1F57F42FF3A06D0018821B18068B3
:10ABF000401C01D00020704701207047884204D2D9
:10AC00000068401C01D001207047002070473EB50D
:10AC1000027802230C46B3EB520F17D1B0F80110A3
:10AC2000ADF80010C1788DF802108188ADF80410DD
:10AC300080798DF8060002AA01A92046FCF7C8FF1A
:10AC4000032202A96846FCF75CFC08B100203EBD67
:10AC500001203EBD70B50D460446142810D2FDF704
:10AC600011FE68B1084904EB840001EB4000D0F804
:10AC700002102960C188A980007AA871002070BDE7
:10AC800043F2020070BD0000942A002070B50188D4
:10AC900090B0102961D1011D2C226846FCF706FCFA
:10ACA0009DF804004FF6FF7603213446B1EB500FB8
:10ACB0002BD004F029F89DF804006D4640080ED012
:10ACC00001280CD0022820D118E00D99281D11313F
:10ACD000FCF70CFF18B100BFBDF82C4015E00CAA22
:10ACE0000BA9072003F0E4FF0028EED10DE00D9939
:10ACF000281D491CFFF78BFF0028EDD10CAA0BA9DA
:10AD0000072003F0D5FF0028F1D1BDF80000B442C0
:10AD100000EB8001124820F8114000EB410001993E
:10AD2000C0F80210BDF80810C1809DF80A10017229
:10AD300013D0BDF80000ADF82E000020ADF8304073
:10AD4000084E8DF82C000BAD044600BF56F82410B9
:10AD500028468847641C022CF8D310B070BD000050
:10AD6000942A0020903103002DE9F0414FF6FF7640
:10AD70000546B04213D00B4F002400BF04EB840003
:10AD800037F81000A84206D12046FDF77BFD10B130
:10AD90002046BDE8F081641CA4B2142CEED33046EA
:10ADA000F7E70000942A00203EB50C46054603F064
:10ADB000ABFF0BE0BDF80000A04207D02846029987
:10ADC00000F00EF810B1BDF800003EBD01AA6946C2
:10ADD000072003F06DFF0028ECD14FF6FF703EBD59
:10ADE0002DE9F0410C46054600F1110701F111066D
:10ADF0001022491C401CFCF784FB48B9681C00F079
:10AE0000FDF928B1601C00F0F9F908B1012400E057
:10AE1000002431463846FCF769FE3B780222B2EB4B
:10AE2000530F0CD00321B1EB530F08D03378B2EBA2
:10AE3000530F04D0B1EB530F01D0012100E00021EA
:10AE4000084201D18C4302D00120BDE8F0810020EE
:10AE5000FBE7018811B9421892780AB101207047C6
:10AE6000491C0829F7D30020704710B50C4603464B
:10AE7000FFF7EFFF00280AD018882188884205D103
:10AE80000822A11C981CFCF73CFB08B1002010BD57
:10AE9000012010BD142804D2024A00EB800022F8E1
:10AEA00010107047942A002070B50546FFF75CFF2C
:10AEB0000446284603F0A8FD002808D1142C06D229
:10AEC000034B04EB84024FF6FF7123F8121070BDA0
:10AED000942A002010B50446142808D2FDF7D2FCAD
:10AEE00028B1044904EB840031F8100010BD4FF67E
:10AEF000FF7010BD942A00203EB5044603F004FF05
:10AF00000EE0019920464631FFF7AFFF28B90199BD
:10AF100020462A31FFF7A9FF10B1BDF808003EBD59
:10AF20006A4602A9072003F0C3FE0028E9D14FF6C4
:10AF3000FF703EBD10B50A4941600A4800F00BFFA2
:10AF400058B902F009FC07491C238C2208740448F4
:10AF50008C39001F006800F064FE002010BD000066
:10AF60004C330300603000202DE9F0412D4F0025C7
:10AF700020B17D604FF40640BDE8F08108790122E0
:10AF800058B1294E01280CD0264C4FF00208083445
:10AF9000022820D0032841D127E00A7103F088FB62
:10AFA0003AE0002000EB800116F82110022908D0B9
:10AFB000401C80B20228F5D33A707D6041F61D50E6
:10AFC000DAE700EB800006F8205006EB80004068CE
:10AFD00003F060FB20E00D71A4F80480002301223F
:10AFE0001248216801F020FA16E00D71206803F084
:10AFF00051FB0D4923682831498801EB810206EB9A
:10B000008201D1F804C0C4F800C04B60A3880B8152
:10B01000A4F8048006F822500028ADD07D6048F2E4
:10B020000D60A9E7982300208C2F0020BC2400206D
:10B030000146034802888A4200D000207047000081
:10B04000E82900202DE9FC5F0E008346DDE90C476E
:10B05000C6F1000098469246814600D40846012574
:10B0600003E000BF90FBFAF06D1C5045FADAA845EA
:10B0700000D9454624B1002E01DB780700D5641EB7
:10B08000B80702D5B8F1000F0AD0F80708D13CB1D3
:10B09000A54205D220215846641EFEF7E5F8F6E7E2
:10B0A000002E02DA4E462D2102E0780703D52B212F
:10B0B0005846FEF7D9F807F0030002280BD1B8F183
:10B0C000000F08D13CB1A54205D230215846641E7C
:10B0D000FEF7CAF8F6E7CDE9004743465246314647
:10B0E000584606F075FDBDE8FC9F000070B50D46A2
:10B0F000044600684FF4887102F0F4FB4FF490713D
:10B10000206802F0EFFB4FF49271206802F0EAFB36
:10B110004FF4A271206802F0E5FB4FF4AC71206897
:10B1200002F0E0FB20681249C0F8041320686907A8
:10B1300040F30730090E002804DB00F1E02080F81E
:10B14000001405E000F00F0000F1E02080F8141D6D
:10B15000206840F30730002809DB00F01F020121BE
:10B1600091404009800000F1E020C0F8001170BD5E
:10B1700010034200024600201268530713D502F064
:10B180000300012802D002280CD105E0C2F383108D
:10B190000B68801C184404E00223086803EB9252F9
:10B1A00010440860012070470248007A002800D04F
:10B1B0000120704760300020F0B58488A5189442C3
:10B1C00000D82246A41AC288D6189A4200D813463C
:10B1D000D21A4B880788BB420CD34088834209D8D7
:10B1E0008888A04206D3A84204D8C888904201D3D8
:10B1F000B04201D90020F0BD0120F0BD0021425C29
:10B200000AB101207047491C1029F8D3002070476B
:10B21000800701D000207047012070470268134664
:10B2200002E08A4204D01268002AFAD10B60016061
:10B23000704700000A4810B5807860B1002401E032
:10B24000022C06D02046FDF78BFD641C042CF7D39E
:10B2500010BD0324F6E7BDE81040FDF7A5BD0000D2
:10B26000B022002003480179C90702D00078FDF719
:10B27000D7BE7047B02200201721018041800021F5
:10B28000017141711B218171C17170472DE9FE4F20
:10B290002E4F984692460D00814601D000260DE0C3
:10B2A000684600F07BFC6A460021484603F004FB38
:10B2B0003878009E10B99DF8090098B15246314681
:10B2C000484606F025F80446014600224846FFF7A6
:10B2D00005F80D2C37D008DCA4B3082C33D00B2C88
:10B2E00009D130E00520BDE8FE8F112C1ED0A4F559
:10B2F0004050023827D0204602F0CEFA02461448C9
:10B3000014494B46401AC008012101EB0040124984
:10B3100001F05DFE5FF00305B8F1000F04D0324686
:10B3200021464846FEF7DAFC2846DCE72A46F9784B
:10B330004846FDF78BFA5246B9784846FDF786FA3B
:10B340000025E9E7FFE72546E6E70000182300208F
:10B3500088490300404903009C40030070B50E4635
:10B360000C49154604460978FDF758FA00280FD015
:10B37000204603F047FA00282A463146204603D0EB
:10B38000BDE8704003F044BABDE87040FEF706BC6B
:10B3900070BD00001023002070B5094D0646A97845
:10B3A000FDF73CFA0446E9783046FDF737FA0146E6
:10B3B00022463046BDE870400123FFF767BF00001A
:10B3C00018230020F0B585B00546002714216846F3
:10B3D000FCF785F8A5F57F40ADF80250FF3825D081
:10B3E0002846FFF70DFB040022D01B481B49401ADA
:10B3F000C6080B2C22D0112C1ED0A4F540500238C8
:10B400000ED0204602F048FA0246012000EB06402A
:10B410002B46134901F0DBFD2146284605F0ACFB25
:10B4200010483A4681782846FDF710FA05B0F0BD7D
:10B430000E208DF800000BE00127F1E70F208DF8BA
:10B440000000022000EB06402A46074901F0B8FD43
:10B450006846FEF713FDE3E7404903004049030057
:10B4600024370300D0220020783703000A4602491F
:10B470004978FDF7EBB90000D02200202DE9F0411A
:10B48000002786B080463E46FFF702FB040022D02C
:10B49000112C22D01B481C49401AC508862C1ED0EE
:10B4A000A4F5405002380ED0204602F0F5F90246CD
:10B4B000012000EB0540434614A101F088FD214620
:10B4C000404605F059FB39464046FFF7CFFF06B02E
:10B4D0003046BDE8F0810126F5E70127F3E71422A5
:10B4E0001A496846FBF7E2FF0220ADF8028000EB44
:10B4F0000540424616A101F063FD6846FEF7BEFC1A
:10B50000E1E7000040490300404903006773636DB1
:10B510005F6C6F63616C5F64625F63616368655FEA
:10B5200075706461746528292072657475726E6522
:10B530006420257320666F7220636F6E6E5F686192
:10B540006E646C653A202564000000003C31030005
:10B55000466C6173682066756C6C2E20436F756C49
:10B5600064206E6F742073746F72652064617461FF
:10B5700020666F7220636F6E6E5F68616E646C65CB
:10B580003A202564000000002DE9FF4100262448F0
:10B5900000F0DEFB2248001F074600F0D9FB214CDB
:10B5A0002149A06800900D6800E000986946284095
:10B5B00004EB80000C30FFF7DDFD0028F5D101AA77
:10B5C000009901EA050304EB8303491CDB6842F898
:10B5D0002030401C00910228F2D3019800F00300B3
:10B5E00001280BD0022810D10198032101EB9050C3
:10B5F0000099BDF80A6001EB900005E00198BDF8E4
:10B600000A60C0F3831008440090384600F09DFBA8
:10B6100008B10098A06004B03046BDE8F081000099
:10B620009836002080320020FC23002001F0A8FB87
:10B630000028FBD106F0A8FEF8E700000121ACB01D
:10B640000022084607F0C2F9DFF840924FF40041AB
:10B65000C9F80C00002001F023FD08B1FCF77EFBC7
:10B6600001F080FB00F042FD08B1FCF777FB874852
:10B6700001261030CDE900600023642284A18648B1
:10B6800007F04EFB012802D00420FCF767FB0024E2
:10B690004FF00308CDE90084234664227FA182484D
:10B6A00007F03EFB8149824A891AC908032202EB4E
:10B6B0000145012828467DD07EA100BF01F07CFC19
:10B6C0008448016841F00401016001F0C1FF08B144
:10B6D000FCF744FB69460120009401F049FE08B1E3
:10B6E000FCF73CFB684601F0C3FE08B1FCF736FBF3
:10B6F0007A497948C86010317948C8601031794872
:10B70000C86006F027F878490320FDF73FFC08B130
:10B71000FCF724FB69460020FDF76AFB08B1FCF743
:10B720001DFB9DF8000002287ED000208DF8AC00A3
:10B7300001F0C0FD08B1FCF711FB9DF808006BA1FA
:10B7400020F00F00401C20F0F00010308DF80800B1
:10B750000D2202A87CDF08B1FCF700FB009450200A
:10B76000ADF80000A0200194ADF80200ADF804404F
:10B770004FF4C870ADF8060068467ADF08B1FCF7F0
:10B78000EDFA00215D4800F06FFB08B1FCF7E6FA26
:10B79000FEF772F8FFF7B6F804F0CEFF05F080FB75
:10B7A000AC216846FBF79BFE02278DF800708DF8F0
:10B7B000026000E065E006208DF803003348ADF834
:10B7C0004C80143014904FF4967022904FF6FF7016
:10B7D00023908DF87C604A4829904FF4C07078DF40
:10B7E000464869462030FCF790FD08B1FCF7B6FAF0
:10B7F000424801212030FCF785FD1C216846FBF7FB
:10B800006EFE4FF4A050CDE900404FF4F04002909E
:10B810003C4805903C488DF80C800690ADF80E40F1
:10B820008DF81040684600E02DE0FCF74DFF08B1B0
:10B83000FCF794FA03F000FC284634A101F0BCFBAD
:10B8400001F09EFA0028FBD107F0A4FA0246009707
:10B8500000230121D9F8040007F0F4FB012802D0ED
:10B860000420FCF77BFA2BA9324801F03DFF284663
:10B8700031A101F0A1FB06F057FD0F20FCF76EFA95
:10B88000FBE733A11AE7012050E7000090220020D7
:10B890004C4F4747455200002DB602004D6F746F64
:10B8A00072205461736B0000851E0300F849030089
:10B8B000404903004B686F692074616F20746173A5
:10B8C0006B206B686F6E67207468616E6820636FB1
:10B8D0006E67000010ED00E0199602002429002098
:10B8E0003917030051BA0200E58E0200536D6172F0
:10B8F000745F4375727469616E000000D02400208B
:10B90000B5E2020009E30200879502004F75724319
:10B9100068617261637465726973746963732074BA
:10B9200075746F7269616C20737461727465642ED2
:10B93000000000007D7B0200536D6172742043752E
:10B94000727461696E20737461727465642E000094
:10B950004B686F692074616F207461736B20746829
:10B96000616E6820636F6E670000000070B514465A
:10B9700082880E4605462088111D0144921C99427A
:10B9800001D8FE2A01D90C2070BD521C32542088E7
:10B99000FF21401C80B2208031542088401C80B29E
:10B9A00020808119288806F0BCF82188084480B2DC
:10B9B0002080AA8842B1A96841B13044FBF776FDE6
:10B9C0002088A98808442080002070BD072070BD11
:10B9D0002DE9F047C5881E1DB6FBF5F78946B6FB75
:10B9E000F5F1044605FB176C407916686843DDF8ED
:10B9F00020A0F718001F874200D9C61A166001E080
:10BA00002468491E0029FBD1A5EB0C078846B742E4
:10BA100016D818E004EB0C00001D09EB0803BAF17E
:10BA2000000F3A4602D00146184600E01946FBF7DF
:10BA30003DFD2468F61B4FF0000CB844B54201D917
:10BA4000374600E02F46002EE4D1BDE8F087000025
:10BA50000B480C4910B5401AC00803210A4C01EBF1
:10BA60000040012A07D0022A04D108A101F0A4FA5B
:10BA70000220607010BD0BA101F09EFA0120F8E7D2
:10BA8000F8490300404903009022002044612076D9
:10BA9000616F206D6F646520323A205468752063B1
:10BAA0006F6E670044612076616F206D6F64652062
:10BAB000313A20547520646F6E67000030B502463D
:10BAC00051B101F001FB0021074C08E034F82130AE
:10BAD0001568AB4202D11160002030BD491C814283
:10BAE000F4D3052030BD000000000000BFF35F8FDD
:10BAF00000F016B9F8B50F4601781446054601293D
:10BB000001D1687830B12088821C9A4232D801294C
:10BB100002D006E00720F8BD69780144891C9942EB
:10BB200028D8181A801E86B2ADF800602188B81C8B
:10BB3000084469467DDF0028EDD12978022904D028
:10BB40006878BDF80020904205D3BDF80000B042EF
:10BB500001D809200AE00820012905D16978B142FD
:10BB600002D8ADF8001001E0ADF80060BDF800109B
:10BB7000FE2901D90C20F8BD2288491CB95421881E
:10BB8000491C89B2218078542088401C2080BDF84F
:10BB90000010084420800020F8BD0000034A002166
:10BBA0009268C0E9002181607047000018230020DE
:10BBB00070B586B00D460646144614216846FBF75C
:10BBC0008EFC8DF80050ADF802402046FFF782F958
:10BBD000ADF80400142269463046FBF767FC06B056
:10BBE00070BD70B54FF6FF750E46A84201D100201A
:10BBF00000E0401C84B208E02146304600F090F896
:10BC000008B1204670BD641CA4B2FF2CF4D92846AC
:10BC100070BD10B5FBF749FB08B1002010BD112025
:10BC200010BD10B531B1B2FBF3F403FB14241CB109
:10BC3000092010BD0E2010BD01600021416081600F
:10BC40008281C381084610BD70B50C460546FBF7DE
:10BC5000E1FA002802D021882868084470BD10B598
:10BC60000A8849888A4203D1FBF716FB012010BDE0
:10BC7000002010BD70B50C460546FBF7F0FA002811
:10BC800002D061882868084470BD10B50A884988C8
:10BC90008A4203D1FBF7DAFA012010BD002010BD63
:10BCA00001F01F0301229A40D243490900EB8100B1
:10BCB000114600F059B80A4601F01F0301219940CE
:10BCC00010B552090C4600EB820000F05DF82040F0
:10BCD00000D0012010BD2DE9F04180460D46002422
:10BCE000481E012101EB501716E058F82400C0430C
:10BCF00090FAA0F0B0FA80F020280CD200EB4416A5
:10BD0000AE4208D231464046FFF7D5FF0028ECD1BD
:10BD10003046BDE8F081641CA742E6D82846F8E723
:10BD20004A0950F8220001F01F0201219140084009
:10BD300000D00120704701F01F0301229A404909F9
:10BD400000EB8100114600F029B8002100F017B87F
:10BD5000012100F023B8012100F016B808B56A46A9
:10BD6000FBF7EFFA009808BD08B56A46FBF7CFFA73
:10BD7000009808BD08B56A46FBF7E3FA08BD08B5A8
:10BD80006A46FBF7C4FA08BD08B56A46FBF7B2FA83
:10BD900008BD08B56A46FBF7A1FA08BD08B56A46B2
:10BDA000FBF7A8FA009808BD08B56A46FBF7D6FA73
:10BDB000009808BD38B5044600258DF80050684647
:10BDC000FCF736F821686268086890420ED9401E78
:10BDD00008600178238AE26801FB0325227A216842
:10BDE000101AC0B20A79824200D208719DF8000090
:10BDF000FCF742F8284638BD38B5054600208DF8D6
:10BE000000000C466846FCF713F8E868298A201AF7
:10BE1000B0FBF1F12A681068431C136001709DF8B3
:10BE20000000FCF729F838BD10B530B1017A42683E
:10BE30000368891AC9B21A6006E00E2010BD0368B3
:10BE40001A68541C1C601170491EC9B2F7D20068F0
:10BE500000210171084610BDC20800F0070301204F
:10BE6000895C98400840704710B560B101611721A6
:10BE700020F8021B20F8021B1B2100F8021BFFF711
:10BE8000FBF9002010BD0E2010BD0000F0B5858824
:10BE900093B00C46002D39D1018800263F4F24294C
:10BEA0003BD006DC102909D011290CD0232958D108
:10BEB0004FE03A290BD0552953D129E001462046BD
:10BEC00002F030FA4DE0A01DFFF7D6F949E0224616
:10BED000408934F8061F814200D808466080172840
:10BEE00000D217206080106970B1607960B1D7E925
:10BEF0000001CDE90301ADF80E506088ADF81000E7
:10BF0000136903A9104698476671267113B0F0BDF6
:10BF10000146204602F05AFA23E0011D2C2206A811
:10BF2000FBF7C4FABDF81800BDF81C2004EBC001F3
:10BF30004A732269AAB1D7E90423CDE90423ADF8F5
:10BF40001200487B8DF814002269204604A990470E
:10BF500007E0017A207B884200D201462846FDF79F
:10BF6000A9FBA07A0028D1D0E1882846A5DF0125C9
:10BF700080B11128CAD001F08FFC02460848094957
:10BF800013B0401AC00805EB0040BDE8F04006A120
:10BF900001F016B8A672E572B8E700009831030008
:10BFA000584903004049030073645F626C655F6732
:10BFB000617474635F65786368616E67655F6D74F3
:10BFC000755F726571756573742829207265747563
:10BFD000726E65642025732E0000000020B1027887
:10BFE000DE2A03D0082070470E20704741800020D1
:10BFF000704760B159B10278DE2A0AD00968416001
:10C00000DE2101704FF6FF714180002070470E2045
:10C010007047082070477FB5054600294DD0002D98
:10C020004BD008780C46DE2847D1A8886188884222
:10C0300002D1204605F084FE2888012825D0022858
:10C040003BD011283AD0512837D135F8040F6188F8
:10C05000884232D1A978A81C02292ED1017A04295C
:10C0600003D0062901D0052927D100210091022201
:10C070008DF8002001914FF4C07202910391ADF848
:10C080000420007A05280FD010E0297A20460129E3
:10C0900013D1A988428891420FD10121017204B0C5
:10C0A000BDE8704005F04CBEADF804102888694624
:10C0B000B0DF002801D0616888477FBDA88861880B
:10C0C0008842FAD14FF6FF7060807FBD00F180405A
:10C0D0000068002800D00120704708B500F18040BA
:10C0E000002101600068009008BD000070B50D4C93
:10C0F0000125207808B185260EE00020A060606050
:10C100002061E060084801F011FC064601F024FBC4
:10C1100008B901F0F5FB257001F0EAFB00B1A5704C
:10C12000304670BD782D00202594020038B50025DA
:10C130008DF800506846FBF77BFE084CE068401E17
:10C14000E060E06828B901F0D3FB10B901F00EFC03
:10C15000A5709DF80000FBF78FFE38BD782D0020FC
:10C16000F8B5134D0446A878002648B114B16168AB
:10C17000012088478DF800606846FBF759FE0EE005
:10C180008DF800606846FBF753FE24B1084821464D
:10C190001030FFF743F8E86808B901F0D7FBE8680A
:10C1A000401CE8609DF80000FBF766FEF8BD00004B
:10C1B000782D0020F0B505460478154889B016465C
:10C1C00040F82420124A08690832A2F10C0742F80C
:10C1D0002400487F385520226846FBF767F904940D
:10C1E0002878385C48B10EB10A4A00E0002269465E
:10C1F000281D01F041FF09B0F0BD0EB1064A00E074
:10C200000022694605F10C0001F000FEF3E7000092
:10C2100034230020E1190300291803000FB408B5E6
:10C220000399002904D004AA00926A4600F00FF88E
:10C2300001B05DF814FB10B582680446002A05D0F1
:10C24000D4E90403216898470020A06010BD2DE9BF
:10C25000FC4791460C00804676D014F8011B39B19A
:10C2600025290ED04046FCF7FFFF20780028F4D1A6
:10C2700098F80C00002867D04046BDE8FC47FFF75F
:10C28000DABF0020012221782B291BD02D2902D0D2
:10C29000302908D102E040F0010001E040F0020046
:10C2A000641C002AEFD100252A290ED02178A1F1A3
:10C2B00030020A2A11D205EB850201EB4205641C0B
:10C2C000303DF1E740F00400EAE7D9F800100B1D1B
:10C2D000C9F800300968641C0D44217800232E2918
:10C2E0000BD114F8011FA1F130020A2A05D203EB89
:10C2F000830201EB4203303BF3E76C290DD0682940
:10C300000BD0692921D00BDC252918D0582931D030
:10C3100063290ED0642915D117E014F8011FECE74A
:10C32000702969D0732932D075291BD0782909D199
:10C3300020E0D9F80000011DC9F80010017840463E
:10C34000FCF792FF641C90E76CE0D9F800100A1D1E
:10C35000C9F800200968CDE900500A224046FEF7DE
:10C3600071FEEFE7D9F800100A1DC9F8002009682E
:10C370000A2206E0D9F800100A1DC9F80020096851
:10C380001022CDE90050404605F022FCDAE7D9F84A
:10C39000001000270A1DC9F800200E68C00705D14B
:10C3A00012E04046761C7F1CFCF75EFF31780029C6
:10C3B000F7D104E0202140466D1EFCF755FFBD4239
:10C3C000C0D9002DF6D1BDE74EB13046FBF792F84B
:10C3D000074604E0202140466D1EFCF745FFBD42A4
:10C3E00006D9002DF6D103E04046761CFCF73CFF51
:10C3F00031780029F8D1A5E7D9F80000011DC9F866
:10C400000010056830214046FCF72EFF7821404699
:10C41000FCF72AFF08200021CDE900010346102285
:10C420002946B0E7BDE8FC872DE9F84388460500BA
:10C430002C482D499946A0EB01004FEAD0004FF05F
:10C440000101164601EB004424D0286800282CD0B6
:10C45000002E34D0696840464FF010070A68511E1C
:10C4600011EA080F11D1014672432846FBF757FB2A
:10C4700000282ED028684B463246046901B0414658
:10C480002846A446BDE8F04360472046174B18A253
:10C49000009722E00E2000902046144B1EA220A1FF
:10C4A00000F09DFD0E20BDE8F88308200090204696
:10C4B0000E4B26A21AA100F092FD0820F3E70920F6
:10C4C00000902046094B24A215A100F088FD092008
:10C4D000E9E7064B214A2046009711A100F07FFDB5
:10C4E0001020E0E7D849030040490300333303003C
:10C4F000616464725F69735F706167655F616C69D5
:10C50000676E656428705F66732C20706167655F75
:10C510006164647229000000705F667300000000AF
:10C52000257320636865636B206661696C656420B0
:10C53000696E202573282920776974682076616CDC
:10C54000756520307825782E00000000705F6673D6
:10C550002D3E705F617069006C656E006041030084
:10C5600038B503001148124D4FF00E04A0EB050042
:10C570004FEAD0004FF0010505EB004009D061B152
:10C5800019600C6801B0A446BDE830401146184659
:10C590006047084B08A2009402E0064B08A20094F2
:10C5A00009A100F01CFD0E2038BD0000D849030091
:10C5B00040490300E8320300705F6673000000002A
:10C5C000705F617069000000257320636865636BAC
:10C5D000206661696C656420696E202573282920B6
:10C5E000776974682076616C756520307825782EBF
:10C5F00000000000044801214174007A08B10020C5
:10C60000704701207047000060300020012801D0F1
:10C61000032808D10449002201284A7400D00020D0
:10C62000087403F08BBD70476030002070B502467F
:10C63000022801D0032A45D1234C207A002841D07A
:10C64000012833D0022831D120480023022A006873
:10C6500002D0032A2AD11BE0E360017911B101293C
:10C6600024D10DE0D0E90565711B4FF48056B1422D
:10C6700000D33146294481614569A9420ED015E0B5
:10C680000169491C0161426991420FD1237213E093
:10C69000E168491CE160082908D9E3602372022A95
:10C6A0000AD00D21FDF7F0FA03F0ECFC607C28B114
:10C6B000BDE8704001F056B80021F3E7BDE87040D6
:10C6C00003F03CBD70BD000060300020A8230020B6
:10C6D0002DE9F84F90468A463A493B4A0500A1EBBE
:10C6E00002014FEAD1014FF00102DDF828901E4609
:10C6F0004FF00E0002EB01441AD0B8F1000F1CD02D
:10C700002868002822D00920002E29D069684968AD
:10C71000B6FBF1F201FB1261002926D000902B4BF1
:10C7200020462BA235A100F05AFC0920BDE8F88F65
:10C7300000902046254B3CA203E00090234B20466E
:10C740003BA22EA100F04BFC0E20EFE7082000904A
:10C7500020461E4B38A229A100F041FC0820E5E745
:10C7600000902046194B37A2DCE75046FBF7D1F981
:10C77000102798B14046FBF7CCF9A0B1324651469C
:10C780002846FBF7CCF998B1CDF8009028683346DD
:10C790004246C46851462846A047C7E720460B4B8F
:10C7A00029A2009708E02046084B2DA2009703E03D
:10C7B000064B204633A2009710A100F010FC102079
:10C7C000B4E70000D84903004049030020330300C8
:10C7D00021286C656E202520705F66732D3E705F8A
:10C7E000666C6173685F696E666F2D3E70726F670D
:10C7F00072616D5F756E6974290000002573206396
:10C800006865636B206661696C656420696E2025CC
:10C8100073282920776974682076616C75652030EB
:10C820007825782E00000000705F6673000000001D
:10C83000705F737263000000705F66732D3E705FFF
:10C84000617069006C656E00616464725F69735F3A
:10C85000616C69676E65643332286465737429009E
:10C86000616464725F69735F616C69676E6564338C
:10C8700032282875696E7433325F7429705F737261
:10C8800063290000616464725F69735F776974682B
:10C89000696E5F626F756E647328705F66732C20BB
:10C8A000646573742C206C656E2900002DE9FF41CE
:10C8B0001C46DDE90A7815460E46684600F0E6F8A3
:10C8C00046EA450141EA840141EA072242EA084179
:10C8D000009A00EB8200C0F80017BDE8FF812DE947
:10C8E000FF411C46DDE90A7815460E46684600F011
:10C8F000DBF846EA450141EA840141EA072242EABF
:10C900000841009A00EB8200C0F80017BDE8FF81E3
:10C910002DE9FF411C46DDE90A7815460E466846BA
:10C9200000F0D0F846EA450141EA840141EA0722D5
:10C9300042EA0841009A00EB8200C0F80017BDE807
:10C94000FF812DE9FF411C46DDE90A7815460E46B8
:10C95000684600F0C5F846EA450141EA840141EA2B
:10C96000072242EA0841009A00EB8200C0F8001753
:10C97000BDE8FF811CB5002100910B460122019109
:10C98000FFF7C6FF1CBD1CB5002100910B4601221C
:10C990000191FFF7D6FF1CBD1CB500220B4600928B
:10C9A00011460192FFF7B4FF1CBD1CB500220B46D7
:10C9B000009211460192FFF7C4FF1CBD08B500901C
:10C9C000684600F055F8009A032100EB8200C0F899
:10C9D000001708BD1CB5002100910B4601220191F2
:10C9E0001146FFF795FF1CBD1CB5002100910B46B9
:10C9F000012201911146FFF7A4FF1CBD13B50C469F
:10CA0000684600F051F8009900EB8101D1F8002749
:10CA100022F44032C1F80027009900EB8100D0F8E1
:10CA2000001741EA0441C0F800171CBD3CB50A4C90
:10CA3000D4E90034CDE900346B46441808E000BF67
:10CA400053F82010D1F8205520C2C1F82055401CC1
:10CA50008442F5D83CBD00008432030001B568462D
:10CA600000F006F8009A01219140C0F80C1508BDAD
:10CA70000168202902D24FF0A040704701F01F0149
:10CA80000160014870470000000300500168202940
:10CA900002D24FF0A040704701F01F010160014831
:10CAA00070470000000300500168202902D24FF0B7
:10CAB000A040704701F01F0101600148704700006D
:10CAC000000300500168202902D24FF0A0407047B7
:10CAD00001F01F0101600148704700000003005091
